{
  "_format": "hh-sol-artifact-1",
  "contractName": "Assets",
  "sourceName": "contracts/Assets.sol",
  "abi": [
    {
      "inputs": [
        {
          "internalType": "address",
          "name": "_imx",
          "type": "address"
        }
      ],
      "stateMutability": "nonpayable",
      "type": "constructor"
    },
    {
      "anonymous": false,
      "inputs": [
        {
          "indexed": true,
          "internalType": "address",
          "name": "owner",
          "type": "address"
        },
        {
          "indexed": true,
          "internalType": "address",
          "name": "approved",
          "type": "address"
        },
        {
          "indexed": true,
          "internalType": "uint256",
          "name": "tokenId",
          "type": "uint256"
        }
      ],
      "name": "Approval",
      "type": "event"
    },
    {
      "anonymous": false,
      "inputs": [
        {
          "indexed": true,
          "internalType": "address",
          "name": "owner",
          "type": "address"
        },
        {
          "indexed": true,
          "internalType": "address",
          "name": "operator",
          "type": "address"
        },
        {
          "indexed": false,
          "internalType": "bool",
          "name": "approved",
          "type": "bool"
        }
      ],
      "name": "ApprovalForAll",
      "type": "event"
    },
    {
      "anonymous": false,
      "inputs": [
        {
          "indexed": true,
          "internalType": "address",
          "name": "previousOwner",
          "type": "address"
        },
        {
          "indexed": true,
          "internalType": "address",
          "name": "newOwner",
          "type": "address"
        }
      ],
      "name": "OwnershipTransferred",
      "type": "event"
    },
    {
      "anonymous": false,
      "inputs": [
        {
          "indexed": false,
          "internalType": "address",
          "name": "to",
          "type": "address"
        },
        {
          "indexed": false,
          "internalType": "uint256",
          "name": "tokenID",
          "type": "uint256"
        },
        {
          "indexed": false,
          "internalType": "bytes",
          "name": "blueprint",
          "type": "bytes"
        }
      ],
      "name": "TokenMint",
      "type": "event"
    },
    {
      "anonymous": false,
      "inputs": [
        {
          "indexed": true,
          "internalType": "address",
          "name": "from",
          "type": "address"
        },
        {
          "indexed": true,
          "internalType": "address",
          "name": "to",
          "type": "address"
        },
        {
          "indexed": true,
          "internalType": "uint256",
          "name": "tokenId",
          "type": "uint256"
        }
      ],
      "name": "Transfer",
      "type": "event"
    },
    {
      "stateMutability": "payable",
      "type": "fallback"
    },
    {
      "inputs": [
        {
          "internalType": "address",
          "name": "to",
          "type": "address"
        },
        {
          "internalType": "uint256",
          "name": "tokenId",
          "type": "uint256"
        }
      ],
      "name": "approve",
      "outputs": [],
      "stateMutability": "nonpayable",
      "type": "function"
    },
    {
      "inputs": [
        {
          "internalType": "address",
          "name": "owner",
          "type": "address"
        }
      ],
      "name": "balanceOf",
      "outputs": [
        {
          "internalType": "uint256",
          "name": "",
          "type": "uint256"
        }
      ],
      "stateMutability": "view",
      "type": "function"
    },
    {
      "inputs": [],
      "name": "baseURI",
      "outputs": [
        {
          "internalType": "string",
          "name": "",
          "type": "string"
        }
      ],
      "stateMutability": "view",
      "type": "function"
    },
    {
      "inputs": [
        {
          "internalType": "uint256",
          "name": "tokenId",
          "type": "uint256"
        }
      ],
      "name": "getApproved",
      "outputs": [
        {
          "internalType": "address",
          "name": "",
          "type": "address"
        }
      ],
      "stateMutability": "view",
      "type": "function"
    },
    {
      "inputs": [],
      "name": "imx",
      "outputs": [
        {
          "internalType": "address",
          "name": "",
          "type": "address"
        }
      ],
      "stateMutability": "view",
      "type": "function"
    },
    {
      "inputs": [
        {
          "internalType": "address",
          "name": "owner",
          "type": "address"
        },
        {
          "internalType": "address",
          "name": "operator",
          "type": "address"
        }
      ],
      "name": "isApprovedForAll",
      "outputs": [
        {
          "internalType": "bool",
          "name": "",
          "type": "bool"
        }
      ],
      "stateMutability": "view",
      "type": "function"
    },
    {
      "inputs": [],
      "name": "isPreSaleActive",
      "outputs": [
        {
          "internalType": "bool",
          "name": "",
          "type": "bool"
        }
      ],
      "stateMutability": "view",
      "type": "function"
    },
    {
      "inputs": [
        {
          "internalType": "address",
          "name": "",
          "type": "address"
        }
      ],
      "name": "isWhiteListed",
      "outputs": [
        {
          "internalType": "bool",
          "name": "",
          "type": "bool"
        }
      ],
      "stateMutability": "view",
      "type": "function"
    },
    {
      "inputs": [
        {
          "internalType": "address",
          "name": "to",
          "type": "address"
        },
        {
          "internalType": "uint256",
          "name": "quantity",
          "type": "uint256"
        },
        {
          "internalType": "bytes",
          "name": "mintingBlob",
          "type": "bytes"
        }
      ],
      "name": "mintFor",
      "outputs": [],
      "stateMutability": "nonpayable",
      "type": "function"
    },
    {
      "inputs": [
        {
          "internalType": "uint256",
          "name": "",
          "type": "uint256"
        }
      ],
      "name": "minting",
      "outputs": [
        {
          "internalType": "bytes",
          "name": "",
          "type": "bytes"
        }
      ],
      "stateMutability": "view",
      "type": "function"
    },
    {
      "inputs": [],
      "name": "name",
      "outputs": [
        {
          "internalType": "string",
          "name": "",
          "type": "string"
        }
      ],
      "stateMutability": "view",
      "type": "function"
    },
    {
      "inputs": [],
      "name": "owner",
      "outputs": [
        {
          "internalType": "address",
          "name": "",
          "type": "address"
        }
      ],
      "stateMutability": "view",
      "type": "function"
    },
    {
      "inputs": [
        {
          "internalType": "uint256",
          "name": "tokenId",
          "type": "uint256"
        }
      ],
      "name": "ownerOf",
      "outputs": [
        {
          "internalType": "address",
          "name": "",
          "type": "address"
        }
      ],
      "stateMutability": "view",
      "type": "function"
    },
    {
      "inputs": [],
      "name": "postSaleActiveTime",
      "outputs": [
        {
          "internalType": "uint256",
          "name": "",
          "type": "uint256"
        }
      ],
      "stateMutability": "view",
      "type": "function"
    },
    {
      "inputs": [],
      "name": "postSalePrice",
      "outputs": [
        {
          "internalType": "uint256",
          "name": "",
          "type": "uint256"
        }
      ],
      "stateMutability": "view",
      "type": "function"
    },
    {
      "inputs": [
        {
          "internalType": "address",
          "name": "",
          "type": "address"
        }
      ],
      "name": "postSaletokenLimit",
      "outputs": [
        {
          "internalType": "uint256",
          "name": "",
          "type": "uint256"
        }
      ],
      "stateMutability": "view",
      "type": "function"
    },
    {
      "inputs": [],
      "name": "preSaleActiveTime",
      "outputs": [
        {
          "internalType": "uint256",
          "name": "",
          "type": "uint256"
        }
      ],
      "stateMutability": "view",
      "type": "function"
    },
    {
      "inputs": [],
      "name": "preSalePrice",
      "outputs": [
        {
          "internalType": "uint256",
          "name": "",
          "type": "uint256"
        }
      ],
      "stateMutability": "view",
      "type": "function"
    },
    {
      "inputs": [
        {
          "internalType": "address",
          "name": "",
          "type": "address"
        }
      ],
      "name": "preSaletokenLimit",
      "outputs": [
        {
          "internalType": "uint256",
          "name": "",
          "type": "uint256"
        }
      ],
      "stateMutability": "view",
      "type": "function"
    },
    {
      "inputs": [],
      "name": "renounceOwnership",
      "outputs": [],
      "stateMutability": "nonpayable",
      "type": "function"
    },
    {
      "inputs": [],
      "name": "retrieveBalance",
      "outputs": [
        {
          "internalType": "bool",
          "name": "",
          "type": "bool"
        }
      ],
      "stateMutability": "payable",
      "type": "function"
    },
    {
      "inputs": [
        {
          "internalType": "address",
          "name": "from",
          "type": "address"
        },
        {
          "internalType": "address",
          "name": "to",
          "type": "address"
        },
        {
          "internalType": "uint256",
          "name": "tokenId",
          "type": "uint256"
        }
      ],
      "name": "safeTransferFrom",
      "outputs": [],
      "stateMutability": "nonpayable",
      "type": "function"
    },
    {
      "inputs": [
        {
          "internalType": "address",
          "name": "from",
          "type": "address"
        },
        {
          "internalType": "address",
          "name": "to",
          "type": "address"
        },
        {
          "internalType": "uint256",
          "name": "tokenId",
          "type": "uint256"
        },
        {
          "internalType": "bytes",
          "name": "_data",
          "type": "bytes"
        }
      ],
      "name": "safeTransferFrom",
      "outputs": [],
      "stateMutability": "nonpayable",
      "type": "function"
    },
    {
      "inputs": [
        {
          "internalType": "address",
          "name": "operator",
          "type": "address"
        },
        {
          "internalType": "bool",
          "name": "approved",
          "type": "bool"
        }
      ],
      "name": "setApprovalForAll",
      "outputs": [],
      "stateMutability": "nonpayable",
      "type": "function"
    },
    {
      "inputs": [
        {
          "internalType": "uint256",
          "name": "_day",
          "type": "uint256"
        }
      ],
      "name": "setPreSaleTimeLimit",
      "outputs": [
        {
          "internalType": "uint256",
          "name": "",
          "type": "uint256"
        }
      ],
      "stateMutability": "nonpayable",
      "type": "function"
    },
    {
      "inputs": [
        {
          "internalType": "uint256",
          "name": "id",
          "type": "uint256"
        },
        {
          "internalType": "string",
          "name": "tokenURI",
          "type": "string"
        }
      ],
      "name": "setTokenURI",
      "outputs": [],
      "stateMutability": "nonpayable",
      "type": "function"
    },
    {
      "inputs": [],
      "name": "startTime",
      "outputs": [
        {
          "internalType": "uint256",
          "name": "",
          "type": "uint256"
        }
      ],
      "stateMutability": "view",
      "type": "function"
    },
    {
      "inputs": [
        {
          "internalType": "bytes4",
          "name": "interfaceId",
          "type": "bytes4"
        }
      ],
      "name": "supportsInterface",
      "outputs": [
        {
          "internalType": "bool",
          "name": "",
          "type": "bool"
        }
      ],
      "stateMutability": "view",
      "type": "function"
    },
    {
      "inputs": [],
      "name": "symbol",
      "outputs": [
        {
          "internalType": "string",
          "name": "",
          "type": "string"
        }
      ],
      "stateMutability": "view",
      "type": "function"
    },
    {
      "inputs": [
        {
          "internalType": "uint256",
          "name": "index",
          "type": "uint256"
        }
      ],
      "name": "tokenByIndex",
      "outputs": [
        {
          "internalType": "uint256",
          "name": "",
          "type": "uint256"
        }
      ],
      "stateMutability": "view",
      "type": "function"
    },
    {
      "inputs": [
        {
          "internalType": "address",
          "name": "owner",
          "type": "address"
        },
        {
          "internalType": "uint256",
          "name": "index",
          "type": "uint256"
        }
      ],
      "name": "tokenOfOwnerByIndex",
      "outputs": [
        {
          "internalType": "uint256",
          "name": "",
          "type": "uint256"
        }
      ],
      "stateMutability": "view",
      "type": "function"
    },
    {
      "inputs": [
        {
          "internalType": "uint256",
          "name": "tokenId",
          "type": "uint256"
        }
      ],
      "name": "tokenURI",
      "outputs": [
        {
          "internalType": "string",
          "name": "",
          "type": "string"
        }
      ],
      "stateMutability": "view",
      "type": "function"
    },
    {
      "inputs": [],
      "name": "totalSupply",
      "outputs": [
        {
          "internalType": "uint256",
          "name": "",
          "type": "uint256"
        }
      ],
      "stateMutability": "view",
      "type": "function"
    },
    {
      "inputs": [
        {
          "internalType": "address",
          "name": "from",
          "type": "address"
        },
        {
          "internalType": "address",
          "name": "to",
          "type": "address"
        },
        {
          "internalType": "uint256",
          "name": "tokenId",
          "type": "uint256"
        }
      ],
      "name": "transferFrom",
      "outputs": [],
      "stateMutability": "nonpayable",
      "type": "function"
    },
    {
      "inputs": [
        {
          "internalType": "address",
          "name": "newOwner",
          "type": "address"
        }
      ],
      "name": "transferOwnership",
      "outputs": [],
      "stateMutability": "nonpayable",
      "type": "function"
    },
    {
      "inputs": [
        {
          "internalType": "address",
          "name": "",
          "type": "address"
        }
      ],
      "name": "valueReceived",
      "outputs": [
        {
          "internalType": "uint256",
          "name": "",
          "type": "uint256"
        }
      ],
      "stateMutability": "view",
      "type": "function"
    },
    {
      "inputs": [
        {
          "internalType": "address",
          "name": "_sender",
          "type": "address"
        }
      ],
      "name": "whiteListAddress",
      "outputs": [
        {
          "internalType": "bool",
          "name": "",
          "type": "bool"
        }
      ],
      "stateMutability": "nonpayable",
      "type": "function"
    }
  ],
  "bytecode": "0x6080604052667c58508723800060135566b1a2bc2ec500006014556200002a6200030260201b60201c565b601660006101000a81548173ffffffffffffffffffffffffffffffffffffffff021916908373ffffffffffffffffffffffffffffffffffffffff160217905550730f06707e5e4f7329d2497121d536479c3c4f1129601760006101000a81548173ffffffffffffffffffffffffffffffffffffffff021916908373ffffffffffffffffffffffffffffffffffffffff160217905550348015620000cc57600080fd5b5060405162004f7338038062004f7383398181016040526020811015620000f257600080fd5b81019080805190602001909291905050506040518060400160405280600981526020017f494d582050554e4b5300000000000000000000000000000000000000000000008152506040518060400160405280600281526020017f49500000000000000000000000000000000000000000000000000000000000008152506000620001816200032b60201b60201c565b9050806000806101000a81548173ffffffffffffffffffffffffffffffffffffffff021916908373ffffffffffffffffffffffffffffffffffffffff1602179055508073ffffffffffffffffffffffffffffffffffffffff16600073ffffffffffffffffffffffffffffffffffffffff167f8be0079c531659141344cd1fd0a4f28419497f9722a3daafe3b4186f6b6457e060405160405180910390a350620002376301ffc9a760e01b6200033360201b60201c565b81600790805190602001906200024f9291906200043c565b508060089080519060200190620002689291906200043c565b50620002816380ac58cd60e01b6200033360201b60201c565b62000299635b5e139f60e01b6200033360201b60201c565b620002b163780e9d6360e01b6200033360201b60201c565b505080600b60006101000a81548173ffffffffffffffffffffffffffffffffffffffff021916908373ffffffffffffffffffffffffffffffffffffffff16021790555042600c8190555050620004f2565b60008060009054906101000a900473ffffffffffffffffffffffffffffffffffffffff16905090565b600033905090565b63ffffffff60e01b817bffffffffffffffffffffffffffffffffffffffffffffffffffffffff19161415620003d0576040517f08c379a000000000000000000000000000000000000000000000000000000000815260040180806020018281038252601c8152602001807f4552433136353a20696e76616c696420696e746572666163652069640000000081525060200191505060405180910390fd5b6001806000837bffffffffffffffffffffffffffffffffffffffffffffffffffffffff19167bffffffffffffffffffffffffffffffffffffffffffffffffffffffff1916815260200190815260200160002060006101000a81548160ff02191690831515021790555050565b828054600181600116156101000203166002900490600052602060002090601f016020900481019282620004745760008555620004c0565b82601f106200048f57805160ff1916838001178555620004c0565b82800160010185558215620004c0579182015b82811115620004bf578251825591602001919060010190620004a2565b5b509050620004cf9190620004d3565b5090565b5b80821115620004ee576000816000905550600101620004d4565b5090565b614a7180620005026000396000f3fe60806040526004361061021e5760003560e01c8063715018a611610123578063b88d4fde116100ab578063d79bd4991161006f578063d79bd49914610f51578063e757c17d14610f71578063e985e9c514610f9c578063f2cee92b14611023578063f2fde38b146110d75761021f565b8063b88d4fde14610c94578063bc41934114610da6578063c87b56dd14610e0b578063cf52a7b214610ebf578063d5bd83da14610f265761021f565b806395d89b41116100f257806395d89b4114610ac65780639d044ed314610b565780639e7429bb14610b83578063a22cb46514610bd2578063ae21c86014610c2f5761021f565b8063715018a614610a1857806378e9792514610a2f5780637ca3d57514610a5a5780638da5cb5b14610a855761021f565b806323b872dd116101a65780634f6ccce7116101755780634f6ccce7146108085780636352211e146108575780636c0360eb146108bc5780636f9170f61461094c57806370a08231146109b35761021f565b806323b872dd1461063e57806323d42847146106b95780632f745c591461071e57806342842e0e1461078d5761021f565b8063095ea7b3116101ed578063095ea7b3146103f55780630f08025f14610450578063162094c41461049157806318160ddd1461056357806319ee6e3f1461058e5761021f565b806301ffc9a71461026557806306fdde03146102d557806307a334e214610365578063081812fc146103905761021f565b5b34600f60003373ffffffffffffffffffffffffffffffffffffffff1673ffffffffffffffffffffffffffffffffffffffff16815260200190815260200160002081905550005b34801561027157600080fd5b506102bd6004803603602081101561028857600080fd5b8101908080357bffffffffffffffffffffffffffffffffffffffffffffffffffffffff19169060200190929190505050611128565b60405180821515815260200191505060405180910390f35b3480156102e157600080fd5b506102ea611190565b6040518080602001828103825283818151815260200191508051906020019080838360005b8381101561032a57808201518184015260208101905061030f565b50505050905090810190601f1680156103575780820380516001836020036101000a031916815260200191505b509250505060405180910390f35b34801561037157600080fd5b5061037a611232565b6040518082815260200191505060405180910390f35b34801561039c57600080fd5b506103c9600480360360208110156103b357600080fd5b8101908080359060200190929190505050611238565b604051808273ffffffffffffffffffffffffffffffffffffffff16815260200191505060405180910390f35b34801561040157600080fd5b5061044e6004803603604081101561041857600080fd5b81019080803573ffffffffffffffffffffffffffffffffffffffff169060200190929190803590602001909291905050506112d3565b005b34801561045c57600080fd5b50610465611417565b604051808273ffffffffffffffffffffffffffffffffffffffff16815260200191505060405180910390f35b34801561049d57600080fd5b50610561600480360360408110156104b457600080fd5b8101908080359060200190929190803590602001906401000000008111156104db57600080fd5b8201836020820111156104ed57600080fd5b8035906020019184600183028401116401000000008311171561050f57600080fd5b91908080601f016020809104026020016040519081016040528093929190818152602001838380828437600081840152601f19601f82011690508083019250505050505050919291929050505061143d565b005b34801561056f57600080fd5b50610578611529565b6040518082815260200191505060405180910390f35b34801561059a57600080fd5b5061063c600480360360608110156105b157600080fd5b81019080803573ffffffffffffffffffffffffffffffffffffffff16906020019092919080359060200190929190803590602001906401000000008111156105f857600080fd5b82018360208201111561060a57600080fd5b8035906020019184600183028401116401000000008311171561062c57600080fd5b909192939192939050505061153a565b005b34801561064a57600080fd5b506106b76004803603606081101561066157600080fd5b81019080803573ffffffffffffffffffffffffffffffffffffffff169060200190929190803573ffffffffffffffffffffffffffffffffffffffff1690602001909291908035906020019092919050505061176d565b005b3480156106c557600080fd5b50610708600480360360208110156106dc57600080fd5b81019080803573ffffffffffffffffffffffffffffffffffffffff1690602001909291905050506117e3565b6040518082815260200191505060405180910390f35b34801561072a57600080fd5b506107776004803603604081101561074157600080fd5b81019080803573ffffffffffffffffffffffffffffffffffffffff169060200190929190803590602001909291905050506117fb565b6040518082815260200191505060405180910390f35b34801561079957600080fd5b50610806600480360360608110156107b057600080fd5b81019080803573ffffffffffffffffffffffffffffffffffffffff169060200190929190803573ffffffffffffffffffffffffffffffffffffffff16906020019092919080359060200190929190505050611856565b005b34801561081457600080fd5b506108416004803603602081101561082b57600080fd5b8101908080359060200190929190505050611876565b6040518082815260200191505060405180910390f35b34801561086357600080fd5b506108906004803603602081101561087a57600080fd5b8101908080359060200190929190505050611899565b604051808273ffffffffffffffffffffffffffffffffffffffff16815260200191505060405180910390f35b3480156108c857600080fd5b506108d16118d0565b6040518080602001828103825283818151815260200191508051906020019080838360005b838110156109115780820151818401526020810190506108f6565b50505050905090810190601f16801561093e5780820380516001836020036101000a031916815260200191505b509250505060405180910390f35b34801561095857600080fd5b5061099b6004803603602081101561096f57600080fd5b81019080803573ffffffffffffffffffffffffffffffffffffffff169060200190929190505050611972565b60405180821515815260200191505060405180910390f35b3480156109bf57600080fd5b50610a02600480360360208110156109d657600080fd5b81019080803573ffffffffffffffffffffffffffffffffffffffff169060200190929190505050611992565b6040518082815260200191505060405180910390f35b348015610a2457600080fd5b50610a2d611a67565b005b348015610a3b57600080fd5b50610a44611bd4565b6040518082815260200191505060405180910390f35b348015610a6657600080fd5b50610a6f611bda565b6040518082815260200191505060405180910390f35b348015610a9157600080fd5b50610a9a611be0565b604051808273ffffffffffffffffffffffffffffffffffffffff16815260200191505060405180910390f35b348015610ad257600080fd5b50610adb611c09565b6040518080602001828103825283818151815260200191508051906020019080838360005b83811015610b1b578082015181840152602081019050610b00565b50505050905090810190601f168015610b485780820380516001836020036101000a031916815260200191505b509250505060405180910390f35b348015610b6257600080fd5b50610b6b611cab565b60405180821515815260200191505060405180910390f35b348015610b8f57600080fd5b50610bbc60048036036020811015610ba657600080fd5b8101908080359060200190929190505050611cd0565b6040518082815260200191505060405180910390f35b348015610bde57600080fd5b50610c2d60048036036040811015610bf557600080fd5b81019080803573ffffffffffffffffffffffffffffffffffffffff169060200190929190803515159060200190929190505050611d92565b005b348015610c3b57600080fd5b50610c7e60048036036020811015610c5257600080fd5b81019080803573ffffffffffffffffffffffffffffffffffffffff169060200190929190505050611f48565b6040518082815260200191505060405180910390f35b348015610ca057600080fd5b50610da460048036036080811015610cb757600080fd5b81019080803573ffffffffffffffffffffffffffffffffffffffff169060200190929190803573ffffffffffffffffffffffffffffffffffffffff1690602001909291908035906020019092919080359060200190640100000000811115610d1e57600080fd5b820183602082011115610d3057600080fd5b80359060200191846001830284011164010000000083111715610d5257600080fd5b91908080601f016020809104026020016040519081016040528093929190818152602001838380828437600081840152601f19601f820116905080830192505050505050509192919290505050611f60565b005b348015610db257600080fd5b50610df560048036036020811015610dc957600080fd5b81019080803573ffffffffffffffffffffffffffffffffffffffff169060200190929190505050611fd8565b6040518082815260200191505060405180910390f35b348015610e1757600080fd5b50610e4460048036036020811015610e2e57600080fd5b8101908080359060200190929190505050611ff0565b6040518080602001828103825283818151815260200191508051906020019080838360005b83811015610e84578082015181840152602081019050610e69565b50505050905090810190601f168015610eb15780820380516001836020036101000a031916815260200191505b509250505060405180910390f35b348015610ecb57600080fd5b50610f0e60048036036020811015610ee257600080fd5b81019080803573ffffffffffffffffffffffffffffffffffffffff1690602001909291905050506122c1565b60405180821515815260200191505060405180910390f35b348015610f3257600080fd5b50610f3b6123d0565b6040518082815260200191505060405180910390f35b610f596123d6565b60405180821515815260200191505060405180910390f35b348015610f7d57600080fd5b50610f86612573565b6040518082815260200191505060405180910390f35b348015610fa857600080fd5b5061100b60048036036040811015610fbf57600080fd5b81019080803573ffffffffffffffffffffffffffffffffffffffff169060200190929190803573ffffffffffffffffffffffffffffffffffffffff169060200190929190505050612579565b60405180821515815260200191505060405180910390f35b34801561102f57600080fd5b5061105c6004803603602081101561104657600080fd5b810190808035906020019092919050505061260d565b6040518080602001828103825283818151815260200191508051906020019080838360005b8381101561109c578082015181840152602081019050611081565b50505050905090810190601f1680156110c95780820380516001836020036101000a031916815260200191505b509250505060405180910390f35b3480156110e357600080fd5b50611126600480360360208110156110fa57600080fd5b81019080803573ffffffffffffffffffffffffffffffffffffffff1690602001909291905050506126bd565b005b600060016000837bffffffffffffffffffffffffffffffffffffffffffffffffffffffff19167bffffffffffffffffffffffffffffffffffffffffffffffffffffffff1916815260200190815260200160002060009054906101000a900460ff169050919050565b606060078054600181600116156101000203166002900480601f0160208091040260200160405190810160405280929190818152602001828054600181600116156101000203166002900480156112285780601f106111fd57610100808354040283529160200191611228565b820191906000526020600020905b81548152906001019060200180831161120b57829003601f168201915b5050505050905090565b600e5481565b6000611243826128af565b611298576040517f08c379a000000000000000000000000000000000000000000000000000000000815260040180806020018281038252602c81526020018061493a602c913960400191505060405180910390fd5b6005600083815260200190815260200160002060009054906101000a900473ffffffffffffffffffffffffffffffffffffffff169050919050565b60006112de82611899565b90508073ffffffffffffffffffffffffffffffffffffffff168373ffffffffffffffffffffffffffffffffffffffff161415611365576040517f08c379a00000000000000000000000000000000000000000000000000000000081526004018080602001828103825260218152602001806149ea6021913960400191505060405180910390fd5b8073ffffffffffffffffffffffffffffffffffffffff166113846128cc565b73ffffffffffffffffffffffffffffffffffffffff1614806113b357506113b2816113ad6128cc565b612579565b5b611408576040517f08c379a000000000000000000000000000000000000000000000000000000000815260040180806020018281038252603881526020018061488d6038913960400191505060405180910390fd5b61141283836128d4565b505050565b600b60009054906101000a900473ffffffffffffffffffffffffffffffffffffffff1681565b62015180600d5402600c540142101561145557600080fd5b601260006114616128cc565b73ffffffffffffffffffffffffffffffffffffffff1673ffffffffffffffffffffffffffffffffffffffff16815260200190815260200160002060009054906101000a900460ff1661151b576040517f08c379a00000000000000000000000000000000000000000000000000000000081526004018080602001828103825260108152602001807f4e6f74207768697465206c69737465640000000000000000000000000000000081525060200191505060405180910390fd5b611525828261298d565b5050565b60006115356003612a17565b905090565b6115426128cc565b73ffffffffffffffffffffffffffffffffffffffff16611560611be0565b73ffffffffffffffffffffffffffffffffffffffff16146115e9576040517f08c379a00000000000000000000000000000000000000000000000000000000081526004018080602001828103825260208152602001807f4f776e61626c653a2063616c6c6572206973206e6f7420746865206f776e657281525060200191505060405180910390fd5b6001831461165f576040517f08c379a000000000000000000000000000000000000000000000000000000000815260040180806020018281038252600f8152602001807f4e6f74206d6f7265207468616e2031000000000000000000000000000000000081525060200191505060405180910390fd5b60008061166c8484612a2c565b9150915080601560008481526020019081526020016000209080519060200190611697929190614630565b506116a28683612c47565b507f5632acf966a0050d2c24d7f5ccdd20cc1bcf726cfd6c945e805aae0b0a332ec3868383604051808473ffffffffffffffffffffffffffffffffffffffff16815260200183815260200180602001828103825283818151815260200191508051906020019080838360005b8381101561172957808201518184015260208101905061170e565b50505050905090810190601f1680156117565780820380516001836020036101000a031916815260200191505b5094505050505060405180910390a1505050505050565b61177e6117786128cc565b826131fd565b6117d3576040517f08c379a0000000000000000000000000000000000000000000000000000000008152600401808060200182810382526031815260200180614a0b6031913960400191505060405180910390fd5b6117de8383836132f1565b505050565b60106020528060005260406000206000915090505481565b600061184e82600260008673ffffffffffffffffffffffffffffffffffffffff1673ffffffffffffffffffffffffffffffffffffffff16815260200190815260200160002061353490919063ffffffff16565b905092915050565b61187183838360405180602001604052806000815250611f60565b505050565b60008061188d83600361354e90919063ffffffff16565b50905080915050919050565b60006118c9826040518060600160405280602981526020016148ef60299139600361357a9092919063ffffffff16565b9050919050565b6060600a8054600181600116156101000203166002900480601f0160208091040260200160405190810160405280929190818152602001828054600181600116156101000203166002900480156119685780601f1061193d57610100808354040283529160200191611968565b820191906000526020600020905b81548152906001019060200180831161194b57829003601f168201915b5050505050905090565b60126020528060005260406000206000915054906101000a900460ff1681565b60008073ffffffffffffffffffffffffffffffffffffffff168273ffffffffffffffffffffffffffffffffffffffff161415611a19576040517f08c379a000000000000000000000000000000000000000000000000000000000815260040180806020018281038252602a8152602001806148c5602a913960400191505060405180910390fd5b611a60600260008473ffffffffffffffffffffffffffffffffffffffff1673ffffffffffffffffffffffffffffffffffffffff168152602001908152602001600020613599565b9050919050565b611a6f6128cc565b73ffffffffffffffffffffffffffffffffffffffff16611a8d611be0565b73ffffffffffffffffffffffffffffffffffffffff1614611b16576040517f08c379a00000000000000000000000000000000000000000000000000000000081526004018080602001828103825260208152602001807f4f776e61626c653a2063616c6c6572206973206e6f7420746865206f776e657281525060200191505060405180910390fd5b600073ffffffffffffffffffffffffffffffffffffffff1660008054906101000a900473ffffffffffffffffffffffffffffffffffffffff1673ffffffffffffffffffffffffffffffffffffffff167f8be0079c531659141344cd1fd0a4f28419497f9722a3daafe3b4186f6b6457e060405160405180910390a360008060006101000a81548173ffffffffffffffffffffffffffffffffffffffff021916908373ffffffffffffffffffffffffffffffffffffffff160217905550565b600c5481565b600d5481565b60008060009054906101000a900473ffffffffffffffffffffffffffffffffffffffff16905090565b606060088054600181600116156101000203166002900480601f016020809104026020016040519081016040528092919081815260200182805460018160011615610100020316600290048015611ca15780601f10611c7657610100808354040283529160200191611ca1565b820191906000526020600020905b815481529060010190602001808311611c8457829003601f168201915b5050505050905090565b600062015180600d5402600c54014211611cc85760019050611ccd565b600090505b90565b6000611cda6128cc565b73ffffffffffffffffffffffffffffffffffffffff16611cf8611be0565b73ffffffffffffffffffffffffffffffffffffffff1614611d81576040517f08c379a00000000000000000000000000000000000000000000000000000000081526004018080602001828103825260208152602001807f4f776e61626c653a2063616c6c6572206973206e6f7420746865206f776e657281525060200191505060405180910390fd5b81600d81905550600d549050919050565b611d9a6128cc565b73ffffffffffffffffffffffffffffffffffffffff168273ffffffffffffffffffffffffffffffffffffffff161415611e3b576040517f08c379a00000000000000000000000000000000000000000000000000000000081526004018080602001828103825260198152602001807f4552433732313a20617070726f766520746f2063616c6c65720000000000000081525060200191505060405180910390fd5b8060066000611e486128cc565b73ffffffffffffffffffffffffffffffffffffffff1673ffffffffffffffffffffffffffffffffffffffff16815260200190815260200160002060008473ffffffffffffffffffffffffffffffffffffffff1673ffffffffffffffffffffffffffffffffffffffff16815260200190815260200160002060006101000a81548160ff0219169083151502179055508173ffffffffffffffffffffffffffffffffffffffff16611ef56128cc565b73ffffffffffffffffffffffffffffffffffffffff167f17307eab39ab6107e8899845ad3d59bd9653f200f220920489ca2b5937696c318360405180821515815260200191505060405180910390a35050565b600f6020528060005260406000206000915090505481565b611f71611f6b6128cc565b836131fd565b611fc6576040517f08c379a0000000000000000000000000000000000000000000000000000000008152600401808060200182810382526031815260200180614a0b6031913960400191505060405180910390fd5b611fd2848484846135ae565b50505050565b60116020528060005260406000206000915090505481565b6060611ffb826128af565b612050576040517f08c379a000000000000000000000000000000000000000000000000000000000815260040180806020018281038252602f8152602001806149bb602f913960400191505060405180910390fd5b6000600960008481526020019081526020016000208054600181600116156101000203166002900480601f0160208091040260200160405190810160405280929190818152602001828054600181600116156101000203166002900480156120f95780601f106120ce576101008083540402835291602001916120f9565b820191906000526020600020905b8154815290600101906020018083116120dc57829003601f168201915b50505050509050600061210a6118d0565b90506000815114156121205781925050506122bc565b6000825111156121f15780826040516020018083805190602001908083835b60208310612162578051825260208201915060208101905060208303925061213f565b6001836020036101000a03801982511681845116808217855250505050505090500182805190602001908083835b602083106121b35780518252602082019150602081019050602083039250612190565b6001836020036101000a03801982511681845116808217855250505050505090500192505050604051602081830303815290604052925050506122bc565b806121fb85613620565b6040516020018083805190602001908083835b60208310612231578051825260208201915060208101905060208303925061220e565b6001836020036101000a03801982511681845116808217855250505050505090500182805190602001908083835b60208310612282578051825260208201915060208101905060208303925061225f565b6001836020036101000a03801982511681845116808217855250505050505090500192505050604051602081830303815290604052925050505b919050565b60006122cb6128cc565b73ffffffffffffffffffffffffffffffffffffffff166122e9611be0565b73ffffffffffffffffffffffffffffffffffffffff1614612372576040517f08c379a00000000000000000000000000000000000000000000000000000000081526004018080602001828103825260208152602001807f4f776e61626c653a2063616c6c6572206973206e6f7420746865206f776e657281525060200191505060405180910390fd5b6001601260008473ffffffffffffffffffffffffffffffffffffffff1673ffffffffffffffffffffffffffffffffffffffff16815260200190815260200160002060006101000a81548160ff02191690831515021790559050919050565b60145481565b60006123e06128cc565b73ffffffffffffffffffffffffffffffffffffffff166123fe611be0565b73ffffffffffffffffffffffffffffffffffffffff1614612487576040517f08c379a00000000000000000000000000000000000000000000000000000000081526004018080602001828103825260208152602001807f4f776e61626c653a2063616c6c6572206973206e6f7420746865206f776e657281525060200191505060405180910390fd5b601660009054906101000a900473ffffffffffffffffffffffffffffffffffffffff1673ffffffffffffffffffffffffffffffffffffffff166108fc6124d760024761376790919063ffffffff16565b9081150290604051600060405180830381858888f19350505050158015612502573d6000803e3d6000fd5b50601760009054906101000a900473ffffffffffffffffffffffffffffffffffffffff1673ffffffffffffffffffffffffffffffffffffffff166108fc479081150290604051600060405180830381858888f1935050505015801561256b573d6000803e3d6000fd5b506001905090565b60135481565b6000600660008473ffffffffffffffffffffffffffffffffffffffff1673ffffffffffffffffffffffffffffffffffffffff16815260200190815260200160002060008373ffffffffffffffffffffffffffffffffffffffff1673ffffffffffffffffffffffffffffffffffffffff16815260200190815260200160002060009054906101000a900460ff16905092915050565b60156020528060005260406000206000915090508054600181600116156101000203166002900480601f0160208091040260200160405190810160405280929190818152602001828054600181600116156101000203166002900480156126b55780601f1061268a576101008083540402835291602001916126b5565b820191906000526020600020905b81548152906001019060200180831161269857829003601f168201915b505050505081565b6126c56128cc565b73ffffffffffffffffffffffffffffffffffffffff166126e3611be0565b73ffffffffffffffffffffffffffffffffffffffff161461276c576040517f08c379a00000000000000000000000000000000000000000000000000000000081526004018080602001828103825260208152602001807f4f776e61626c653a2063616c6c6572206973206e6f7420746865206f776e657281525060200191505060405180910390fd5b600073ffffffffffffffffffffffffffffffffffffffff168173ffffffffffffffffffffffffffffffffffffffff1614156127f2576040517f08c379a00000000000000000000000000000000000000000000000000000000081526004018080602001828103825260268152602001806147f16026913960400191505060405180910390fd5b8073ffffffffffffffffffffffffffffffffffffffff1660008054906101000a900473ffffffffffffffffffffffffffffffffffffffff1673ffffffffffffffffffffffffffffffffffffffff167f8be0079c531659141344cd1fd0a4f28419497f9722a3daafe3b4186f6b6457e060405160405180910390a3806000806101000a81548173ffffffffffffffffffffffffffffffffffffffff021916908373ffffffffffffffffffffffffffffffffffffffff16021790555050565b60006128c58260036137f090919063ffffffff16565b9050919050565b600033905090565b816005600083815260200190815260200160002060006101000a81548173ffffffffffffffffffffffffffffffffffffffff021916908373ffffffffffffffffffffffffffffffffffffffff160217905550808273ffffffffffffffffffffffffffffffffffffffff1661294783611899565b73ffffffffffffffffffffffffffffffffffffffff167f8c5be1e5ebec7d5bd14f71427d1e84f3dd0314c0f7b2291e5b200ac8c7c3b92560405160405180910390a45050565b612996826128af565b6129eb576040517f08c379a000000000000000000000000000000000000000000000000000000000815260040180806020018281038252602c815260200180614966602c913960400191505060405180910390fd5b80600960008481526020019081526020016000209080519060200190612a129291906146be565b505050565b6000612a258260000161380a565b9050919050565b600060606000612ab785858080601f016020809104026020016040519081016040528093929190818152602001838380828437600081840152601f19601f820116905080830192505050505050506040518060400160405280600181526020017f3a00000000000000000000000000000000000000000000000000000000000000815250600061381b565b90506000811215612b30576040517f08c379a00000000000000000000000000000000000000000000000000000000081526004018080602001828103825260148152602001807f536570617261746f72206d75737420657869737400000000000000000000000081525060200191505060405180910390fd5b6000612b9386866001906001860392612b4b93929190614769565b8080601f016020809104026020016040519081016040528093929190818152602001838380828437600081840152601f19601f820116905080830192505050505050506138f8565b9050600060038388889050030390506000811415612bc857816040518060200160405280600081525094509450505050612c40565b3660008888600287019060018c8c90500392612be693929190614769565b9150915083828281818080601f016020809104026020016040519081016040528093929190818152602001838380828437600081840152601f19601f82011690508083019250505050505050905090509650965050505050505b9250929050565b6000612c51611cab565b15612f8857601260008473ffffffffffffffffffffffffffffffffffffffff1673ffffffffffffffffffffffffffffffffffffffff16815260200190815260200160002060009054906101000a900460ff16612d15576040517f08c379a00000000000000000000000000000000000000000000000000000000081526004018080602001828103825260178152602001807f41646472657373206e6f742077686974656c697374656400000000000000000081525060200191505060405180910390fd5b6001601060008573ffffffffffffffffffffffffffffffffffffffff1673ffffffffffffffffffffffffffffffffffffffff168152602001908152602001600020541115612dcb576040517f08c379a00000000000000000000000000000000000000000000000000000000081526004018080602001828103825260198152602001807f5075726368617365204c696d69742046756c6c66696c6c65640000000000000081525060200191505060405180910390fd5b601354600f60003373ffffffffffffffffffffffffffffffffffffffff1673ffffffffffffffffffffffffffffffffffffffff168152602001908152602001600020541015612e1957600080fd5b612e6d601354600f60003373ffffffffffffffffffffffffffffffffffffffff1673ffffffffffffffffffffffffffffffffffffffff1681526020019081526020016000205461396790919063ffffffff16565b600f60003373ffffffffffffffffffffffffffffffffffffffff1673ffffffffffffffffffffffffffffffffffffffff168152602001908152602001600020819055506001601060008573ffffffffffffffffffffffffffffffffffffffff1673ffffffffffffffffffffffffffffffffffffffff1681526020019081526020016000205401601060008573ffffffffffffffffffffffffffffffffffffffff1673ffffffffffffffffffffffffffffffffffffffff16815260200190815260200160002081905550612f4083836139ea565b612f7f826040518060400160405280600481526020017f4e4f4e450000000000000000000000000000000000000000000000000000000081525061298d565b600190506131f7565b6003601160008573ffffffffffffffffffffffffffffffffffffffff1673ffffffffffffffffffffffffffffffffffffffff16815260200190815260200160002054111561303e576040517f08c379a000000000000000000000000000000000000000000000000000000000815260040180806020018281038252600f8152602001807f4c696d69742046756c66696c6c6564000000000000000000000000000000000081525060200191505060405180910390fd5b601454600f60003373ffffffffffffffffffffffffffffffffffffffff1673ffffffffffffffffffffffffffffffffffffffff16815260200190815260200160002054101561308c57600080fd5b6130e0601454600f60003373ffffffffffffffffffffffffffffffffffffffff1673ffffffffffffffffffffffffffffffffffffffff1681526020019081526020016000205461396790919063ffffffff16565b600f60003373ffffffffffffffffffffffffffffffffffffffff1673ffffffffffffffffffffffffffffffffffffffff168152602001908152602001600020819055506001601160008573ffffffffffffffffffffffffffffffffffffffff1673ffffffffffffffffffffffffffffffffffffffff1681526020019081526020016000205401601160008573ffffffffffffffffffffffffffffffffffffffff1673ffffffffffffffffffffffffffffffffffffffff168152602001908152602001600020819055506131b383836139ea565b6131f2826040518060400160405280600481526020017f4e4f4e450000000000000000000000000000000000000000000000000000000081525061298d565b600190505b92915050565b6000613208826128af565b61325d576040517f08c379a000000000000000000000000000000000000000000000000000000000815260040180806020018281038252602c815260200180614861602c913960400191505060405180910390fd5b600061326883611899565b90508073ffffffffffffffffffffffffffffffffffffffff168473ffffffffffffffffffffffffffffffffffffffff1614806132d757508373ffffffffffffffffffffffffffffffffffffffff166132bf84611238565b73ffffffffffffffffffffffffffffffffffffffff16145b806132e857506132e78185612579565b5b91505092915050565b8273ffffffffffffffffffffffffffffffffffffffff1661331182611899565b73ffffffffffffffffffffffffffffffffffffffff161461337d576040517f08c379a00000000000000000000000000000000000000000000000000000000081526004018080602001828103825260298152602001806149926029913960400191505060405180910390fd5b600073ffffffffffffffffffffffffffffffffffffffff168273ffffffffffffffffffffffffffffffffffffffff161415613403576040517f08c379a00000000000000000000000000000000000000000000000000000000081526004018080602001828103825260248152602001806148176024913960400191505060405180910390fd5b61340e838383613a08565b6134196000826128d4565b61346a81600260008673ffffffffffffffffffffffffffffffffffffffff1673ffffffffffffffffffffffffffffffffffffffff168152602001908152602001600020613a0d90919063ffffffff16565b506134bc81600260008573ffffffffffffffffffffffffffffffffffffffff1673ffffffffffffffffffffffffffffffffffffffff168152602001908152602001600020613a2790919063ffffffff16565b506134d381836003613a419092919063ffffffff16565b50808273ffffffffffffffffffffffffffffffffffffffff168473ffffffffffffffffffffffffffffffffffffffff167fddf252ad1be2c89b69c2b068fc378daa952ba7f163c4a11628f55a4df523b3ef60405160405180910390a4505050565b60006135438360000183613a76565b60001c905092915050565b6000806000806135618660000186613af9565b915091508160001c8160001c9350935050509250929050565b600061358d846000018460001b84613b92565b60001c90509392505050565b60006135a782600001613c88565b9050919050565b6135b98484846132f1565b6135c584848484613c99565b61361a576040517f08c379a00000000000000000000000000000000000000000000000000000000081526004018080602001828103825260328152602001806147bf6032913960400191505060405180910390fd5b50505050565b60606000821415613668576040518060400160405280600181526020017f30000000000000000000000000000000000000000000000000000000000000008152509050613762565b600082905060005b60008214613692578080600101915050600a828161368a57fe5b049150613670565b60008167ffffffffffffffff811180156136ab57600080fd5b506040519080825280601f01601f1916602001820160405280156136de5781602001600182028036833780820191505090505b50905060006001830390508593505b6000841461375a57600a84816136ff57fe5b0660300160f81b8282806001900393508151811061371957fe5b60200101907effffffffffffffffffffffffffffffffffffffffffffffffffffffffffffff1916908160001a905350600a848161375257fe5b0493506136ed565b819450505050505b919050565b60008082116137de576040517f08c379a000000000000000000000000000000000000000000000000000000000815260040180806020018281038252601a8152602001807f536166654d6174683a206469766973696f6e206279207a65726f00000000000081525060200191505060405180910390fd5b8183816137e757fe5b04905092915050565b6000613802836000018360001b613eb2565b905092915050565b600081600001805490509050919050565b600080839050600181511461382c57fe5b60008390505b85518110156138cb578160008151811061384857fe5b602001015160f81c60f81b7effffffffffffffffffffffffffffffffffffffffffffffffffffffffffffff191686828151811061388157fe5b602001015160f81c60f81b7effffffffffffffffffffffffffffffffffffffffffffffffffffffffffffff191614156138be5780925050506138f1565b8080600101915050613832565b507fffffffffffffffffffffffffffffffffffffffffffffffffffffffffffffffff9150505b9392505050565b6000806000905060005b835181101561395d57600084828151811061391957fe5b602001015160f81c60f81b60f81c60ff1690506030811015801561393e575060398111155b1561394f5760308103600a84020192505b508080600101915050613902565b5080915050919050565b6000828211156139df576040517f08c379a000000000000000000000000000000000000000000000000000000000815260040180806020018281038252601e8152602001807f536166654d6174683a207375627472616374696f6e206f766572666c6f77000081525060200191505060405180910390fd5b818303905092915050565b613a04828260405180602001604052806000815250613ed5565b5050565b505050565b6000613a1f836000018360001b613f46565b905092915050565b6000613a39836000018360001b61402e565b905092915050565b6000613a6d846000018460001b8473ffffffffffffffffffffffffffffffffffffffff1660001b61409e565b90509392505050565b600081836000018054905011613ad7576040517f08c379a000000000000000000000000000000000000000000000000000000000815260040180806020018281038252602281526020018061479d6022913960400191505060405180910390fd5b826000018281548110613ae657fe5b9060005260206000200154905092915050565b60008082846000018054905011613b5b576040517f08c379a00000000000000000000000000000000000000000000000000000000081526004018080602001828103825260228152602001806149186022913960400191505060405180910390fd5b6000846000018481548110613b6c57fe5b906000526020600020906002020190508060000154816001015492509250509250929050565b60008084600101600085815260200190815260200160002054905060008114158390613c59576040517f08c379a00000000000000000000000000000000000000000000000000000000081526004018080602001828103825283818151815260200191508051906020019080838360005b83811015613c1e578082015181840152602081019050613c03565b50505050905090810190601f168015613c4b5780820380516001836020036101000a031916815260200191505b509250505060405180910390fd5b50846000016001820381548110613c6c57fe5b9060005260206000209060020201600101549150509392505050565b600081600001805490509050919050565b6000613cba8473ffffffffffffffffffffffffffffffffffffffff1661417a565b613cc75760019050613eaa565b6000613e3163150b7a0260e01b613cdc6128cc565b888787604051602401808573ffffffffffffffffffffffffffffffffffffffff1681526020018473ffffffffffffffffffffffffffffffffffffffff16815260200183815260200180602001828103825283818151815260200191508051906020019080838360005b83811015613d60578082015181840152602081019050613d45565b50505050905090810190601f168015613d8d5780820380516001836020036101000a031916815260200191505b5095505050505050604051602081830303815290604052907bffffffffffffffffffffffffffffffffffffffffffffffffffffffff19166020820180517bffffffffffffffffffffffffffffffffffffffffffffffffffffffff83818316178352505050506040518060600160405280603281526020016147bf603291398773ffffffffffffffffffffffffffffffffffffffff1661418d9092919063ffffffff16565b90506000818060200190516020811015613e4a57600080fd5b8101908080519060200190929190505050905063150b7a0260e01b7bffffffffffffffffffffffffffffffffffffffffffffffffffffffff1916817bffffffffffffffffffffffffffffffffffffffffffffffffffffffff191614925050505b949350505050565b600080836001016000848152602001908152602001600020541415905092915050565b613edf83836141a5565b613eec6000848484613c99565b613f41576040517f08c379a00000000000000000000000000000000000000000000000000000000081526004018080602001828103825260328152602001806147bf6032913960400191505060405180910390fd5b505050565b600080836001016000848152602001908152602001600020549050600081146140225760006001820390506000600186600001805490500390506000866000018281548110613f9157fe5b9060005260206000200154905080876000018481548110613fae57fe5b9060005260206000200181905550600183018760010160008381526020019081526020016000208190555086600001805480613fe657fe5b60019003818190600052602060002001600090559055866001016000878152602001908152602001600020600090556001945050505050614028565b60009150505b92915050565b600061403a8383614399565b614093578260000182908060018154018082558091505060019003906000526020600020016000909190919091505582600001805490508360010160008481526020019081526020016000208190555060019050614098565b600090505b92915050565b600080846001016000858152602001908152602001600020549050600081141561414557846000016040518060400160405280868152602001858152509080600181540180825580915050600190039060005260206000209060020201600090919091909150600082015181600001556020820151816001015550508460000180549050856001016000868152602001908152602001600020819055506001915050614173565b8285600001600183038154811061415857fe5b90600052602060002090600202016001018190555060009150505b9392505050565b600080823b905060008111915050919050565b606061419c84846000856143bc565b90509392505050565b600073ffffffffffffffffffffffffffffffffffffffff168273ffffffffffffffffffffffffffffffffffffffff161415614248576040517f08c379a00000000000000000000000000000000000000000000000000000000081526004018080602001828103825260208152602001807f4552433732313a206d696e7420746f20746865207a65726f206164647265737381525060200191505060405180910390fd5b614251816128af565b156142c4576040517f08c379a000000000000000000000000000000000000000000000000000000000815260040180806020018281038252601c8152602001807f4552433732313a20746f6b656e20616c7265616479206d696e7465640000000081525060200191505060405180910390fd5b6142d060008383613a08565b61432181600260008573ffffffffffffffffffffffffffffffffffffffff1673ffffffffffffffffffffffffffffffffffffffff168152602001908152602001600020613a2790919063ffffffff16565b5061433881836003613a419092919063ffffffff16565b50808273ffffffffffffffffffffffffffffffffffffffff16600073ffffffffffffffffffffffffffffffffffffffff167fddf252ad1be2c89b69c2b068fc378daa952ba7f163c4a11628f55a4df523b3ef60405160405180910390a45050565b600080836001016000848152602001908152602001600020541415905092915050565b606082471015614417576040517f08c379a000000000000000000000000000000000000000000000000000000000815260040180806020018281038252602681526020018061483b6026913960400191505060405180910390fd5b6144208561417a565b614492576040517f08c379a000000000000000000000000000000000000000000000000000000000815260040180806020018281038252601d8152602001807f416464726573733a2063616c6c20746f206e6f6e2d636f6e747261637400000081525060200191505060405180910390fd5b6000808673ffffffffffffffffffffffffffffffffffffffff1685876040518082805190602001908083835b602083106144e157805182526020820191506020810190506020830392506144be565b6001836020036101000a03801982511681845116808217855250505050505090500191505060006040518083038185875af1925050503d8060008114614543576040519150601f19603f3d011682016040523d82523d6000602084013e614548565b606091505b5091509150614558828286614564565b92505050949350505050565b6060831561457457829050614629565b6000835111156145875782518084602001fd5b816040517f08c379a00000000000000000000000000000000000000000000000000000000081526004018080602001828103825283818151815260200191508051906020019080838360005b838110156145ee5780820151818401526020810190506145d3565b50505050905090810190601f16801561461b5780820380516001836020036101000a031916815260200191505b509250505060405180910390fd5b9392505050565b828054600181600116156101000203166002900490600052602060002090601f01602090048101928261466657600085556146ad565b82601f1061467f57805160ff19168380011785556146ad565b828001600101855582156146ad579182015b828111156146ac578251825591602001919060010190614691565b5b5090506146ba919061474c565b5090565b828054600181600116156101000203166002900490600052602060002090601f0160209004810192826146f4576000855561473b565b82601f1061470d57805160ff191683800117855561473b565b8280016001018555821561473b579182015b8281111561473a57825182559160200191906001019061471f565b5b509050614748919061474c565b5090565b5b8082111561476557600081600090555060010161474d565b5090565b6000808585111561477957600080fd5b8386111561478657600080fd5b600185028301915084860390509450949250505056fe456e756d657261626c655365743a20696e646578206f7574206f6620626f756e64734552433732313a207472616e7366657220746f206e6f6e20455243373231526563656976657220696d706c656d656e7465724f776e61626c653a206e6577206f776e657220697320746865207a65726f20616464726573734552433732313a207472616e7366657220746f20746865207a65726f2061646472657373416464726573733a20696e73756666696369656e742062616c616e636520666f722063616c6c4552433732313a206f70657261746f7220717565727920666f72206e6f6e6578697374656e7420746f6b656e4552433732313a20617070726f76652063616c6c6572206973206e6f74206f776e6572206e6f7220617070726f76656420666f7220616c6c4552433732313a2062616c616e636520717565727920666f7220746865207a65726f20616464726573734552433732313a206f776e657220717565727920666f72206e6f6e6578697374656e7420746f6b656e456e756d657261626c654d61703a20696e646578206f7574206f6620626f756e64734552433732313a20617070726f76656420717565727920666f72206e6f6e6578697374656e7420746f6b656e4552433732314d657461646174613a2055524920736574206f66206e6f6e6578697374656e7420746f6b656e4552433732313a207472616e73666572206f6620746f6b656e2074686174206973206e6f74206f776e4552433732314d657461646174613a2055524920717565727920666f72206e6f6e6578697374656e7420746f6b656e4552433732313a20617070726f76616c20746f2063757272656e74206f776e65724552433732313a207472616e736665722063616c6c6572206973206e6f74206f776e6572206e6f7220617070726f766564a26469706673582212204dc61660f79274c44bf223721a9f4bf59418911c912d1749122deb253bc2fa6864736f6c63430007060033",
  "linkReferences": {},
  "deployedLinkReferences": {}
}