{
  "_format": "hh-sol-artifact-1",
  "contractName": "Assets",
  "sourceName": "contracts/Assets.sol",
  "abi": [
    {
      "inputs": [
        {
          "internalType": "address",
          "name": "_imx",
          "type": "address"
        }
      ],
      "stateMutability": "nonpayable",
      "type": "constructor"
    },
    {
      "anonymous": false,
      "inputs": [
        {
          "indexed": true,
          "internalType": "address",
          "name": "owner",
          "type": "address"
        },
        {
          "indexed": true,
          "internalType": "address",
          "name": "approved",
          "type": "address"
        },
        {
          "indexed": true,
          "internalType": "uint256",
          "name": "tokenId",
          "type": "uint256"
        }
      ],
      "name": "Approval",
      "type": "event"
    },
    {
      "anonymous": false,
      "inputs": [
        {
          "indexed": true,
          "internalType": "address",
          "name": "owner",
          "type": "address"
        },
        {
          "indexed": true,
          "internalType": "address",
          "name": "operator",
          "type": "address"
        },
        {
          "indexed": false,
          "internalType": "bool",
          "name": "approved",
          "type": "bool"
        }
      ],
      "name": "ApprovalForAll",
      "type": "event"
    },
    {
      "anonymous": false,
      "inputs": [
        {
          "indexed": false,
          "internalType": "address",
          "name": "to",
          "type": "address"
        },
        {
          "indexed": false,
          "internalType": "uint256",
          "name": "tokenID",
          "type": "uint256"
        },
        {
          "indexed": false,
          "internalType": "bytes",
          "name": "blueprint",
          "type": "bytes"
        }
      ],
      "name": "TokenMint",
      "type": "event"
    },
    {
      "anonymous": false,
      "inputs": [
        {
          "indexed": true,
          "internalType": "address",
          "name": "from",
          "type": "address"
        },
        {
          "indexed": true,
          "internalType": "address",
          "name": "to",
          "type": "address"
        },
        {
          "indexed": true,
          "internalType": "uint256",
          "name": "tokenId",
          "type": "uint256"
        }
      ],
      "name": "Transfer",
      "type": "event"
    },
    {
      "stateMutability": "payable",
      "type": "fallback"
    },
    {
      "inputs": [
        {
          "internalType": "address",
          "name": "to",
          "type": "address"
        },
        {
          "internalType": "uint256",
          "name": "tokenId",
          "type": "uint256"
        }
      ],
      "name": "approve",
      "outputs": [],
      "stateMutability": "nonpayable",
      "type": "function"
    },
    {
      "inputs": [
        {
          "internalType": "address",
          "name": "owner",
          "type": "address"
        }
      ],
      "name": "balanceOf",
      "outputs": [
        {
          "internalType": "uint256",
          "name": "",
          "type": "uint256"
        }
      ],
      "stateMutability": "view",
      "type": "function"
    },
    {
      "inputs": [],
      "name": "baseURI",
      "outputs": [
        {
          "internalType": "string",
          "name": "",
          "type": "string"
        }
      ],
      "stateMutability": "view",
      "type": "function"
    },
    {
      "inputs": [
        {
          "internalType": "uint256",
          "name": "tokenId",
          "type": "uint256"
        }
      ],
      "name": "getApproved",
      "outputs": [
        {
          "internalType": "address",
          "name": "",
          "type": "address"
        }
      ],
      "stateMutability": "view",
      "type": "function"
    },
    {
      "inputs": [],
      "name": "imx",
      "outputs": [
        {
          "internalType": "address",
          "name": "",
          "type": "address"
        }
      ],
      "stateMutability": "view",
      "type": "function"
    },
    {
      "inputs": [
        {
          "internalType": "address",
          "name": "owner",
          "type": "address"
        },
        {
          "internalType": "address",
          "name": "operator",
          "type": "address"
        }
      ],
      "name": "isApprovedForAll",
      "outputs": [
        {
          "internalType": "bool",
          "name": "",
          "type": "bool"
        }
      ],
      "stateMutability": "view",
      "type": "function"
    },
    {
      "inputs": [],
      "name": "isPreSaleActive",
      "outputs": [
        {
          "internalType": "bool",
          "name": "",
          "type": "bool"
        }
      ],
      "stateMutability": "view",
      "type": "function"
    },
    {
      "inputs": [
        {
          "internalType": "address",
          "name": "",
          "type": "address"
        }
      ],
      "name": "isWhiteListed",
      "outputs": [
        {
          "internalType": "bool",
          "name": "",
          "type": "bool"
        }
      ],
      "stateMutability": "view",
      "type": "function"
    },
    {
      "inputs": [
        {
          "internalType": "address",
          "name": "to",
          "type": "address"
        },
        {
          "internalType": "uint256",
          "name": "quantity",
          "type": "uint256"
        },
        {
          "internalType": "bytes",
          "name": "mintingBlob",
          "type": "bytes"
        }
      ],
      "name": "mintFor",
      "outputs": [],
      "stateMutability": "nonpayable",
      "type": "function"
    },
    {
      "inputs": [
        {
          "internalType": "uint256",
          "name": "",
          "type": "uint256"
        }
      ],
      "name": "minting",
      "outputs": [
        {
          "internalType": "bytes",
          "name": "",
          "type": "bytes"
        }
      ],
      "stateMutability": "view",
      "type": "function"
    },
    {
      "inputs": [],
      "name": "name",
      "outputs": [
        {
          "internalType": "string",
          "name": "",
          "type": "string"
        }
      ],
      "stateMutability": "view",
      "type": "function"
    },
    {
      "inputs": [
        {
          "internalType": "uint256",
          "name": "tokenId",
          "type": "uint256"
        }
      ],
      "name": "ownerOf",
      "outputs": [
        {
          "internalType": "address",
          "name": "",
          "type": "address"
        }
      ],
      "stateMutability": "view",
      "type": "function"
    },
    {
      "inputs": [],
      "name": "postSaleActiveTime",
      "outputs": [
        {
          "internalType": "uint256",
          "name": "",
          "type": "uint256"
        }
      ],
      "stateMutability": "view",
      "type": "function"
    },
    {
      "inputs": [
        {
          "internalType": "address",
          "name": "",
          "type": "address"
        }
      ],
      "name": "postSaletokenLimit",
      "outputs": [
        {
          "internalType": "uint256",
          "name": "",
          "type": "uint256"
        }
      ],
      "stateMutability": "view",
      "type": "function"
    },
    {
      "inputs": [],
      "name": "preSaleActiveTime",
      "outputs": [
        {
          "internalType": "uint256",
          "name": "",
          "type": "uint256"
        }
      ],
      "stateMutability": "view",
      "type": "function"
    },
    {
      "inputs": [
        {
          "internalType": "address",
          "name": "",
          "type": "address"
        }
      ],
      "name": "preSaletokenLimit",
      "outputs": [
        {
          "internalType": "uint256",
          "name": "",
          "type": "uint256"
        }
      ],
      "stateMutability": "view",
      "type": "function"
    },
    {
      "inputs": [],
      "name": "retrieveBalance",
      "outputs": [],
      "stateMutability": "payable",
      "type": "function"
    },
    {
      "inputs": [
        {
          "internalType": "address",
          "name": "from",
          "type": "address"
        },
        {
          "internalType": "address",
          "name": "to",
          "type": "address"
        },
        {
          "internalType": "uint256",
          "name": "tokenId",
          "type": "uint256"
        }
      ],
      "name": "safeTransferFrom",
      "outputs": [],
      "stateMutability": "nonpayable",
      "type": "function"
    },
    {
      "inputs": [
        {
          "internalType": "address",
          "name": "from",
          "type": "address"
        },
        {
          "internalType": "address",
          "name": "to",
          "type": "address"
        },
        {
          "internalType": "uint256",
          "name": "tokenId",
          "type": "uint256"
        },
        {
          "internalType": "bytes",
          "name": "_data",
          "type": "bytes"
        }
      ],
      "name": "safeTransferFrom",
      "outputs": [],
      "stateMutability": "nonpayable",
      "type": "function"
    },
    {
      "inputs": [
        {
          "internalType": "address",
          "name": "operator",
          "type": "address"
        },
        {
          "internalType": "bool",
          "name": "approved",
          "type": "bool"
        }
      ],
      "name": "setApprovalForAll",
      "outputs": [],
      "stateMutability": "nonpayable",
      "type": "function"
    },
    {
      "inputs": [
        {
          "internalType": "uint256",
          "name": "_day",
          "type": "uint256"
        }
      ],
      "name": "setPreSaleTimeLimit",
      "outputs": [],
      "stateMutability": "nonpayable",
      "type": "function"
    },
    {
      "inputs": [
        {
          "internalType": "uint256",
          "name": "id",
          "type": "uint256"
        },
        {
          "internalType": "string",
          "name": "tokenURI",
          "type": "string"
        }
      ],
      "name": "setTokenURI",
      "outputs": [],
      "stateMutability": "nonpayable",
      "type": "function"
    },
    {
      "inputs": [],
      "name": "startTime",
      "outputs": [
        {
          "internalType": "uint256",
          "name": "",
          "type": "uint256"
        }
      ],
      "stateMutability": "view",
      "type": "function"
    },
    {
      "inputs": [
        {
          "internalType": "bytes4",
          "name": "interfaceId",
          "type": "bytes4"
        }
      ],
      "name": "supportsInterface",
      "outputs": [
        {
          "internalType": "bool",
          "name": "",
          "type": "bool"
        }
      ],
      "stateMutability": "view",
      "type": "function"
    },
    {
      "inputs": [],
      "name": "symbol",
      "outputs": [
        {
          "internalType": "string",
          "name": "",
          "type": "string"
        }
      ],
      "stateMutability": "view",
      "type": "function"
    },
    {
      "inputs": [
        {
          "internalType": "uint256",
          "name": "index",
          "type": "uint256"
        }
      ],
      "name": "tokenByIndex",
      "outputs": [
        {
          "internalType": "uint256",
          "name": "",
          "type": "uint256"
        }
      ],
      "stateMutability": "view",
      "type": "function"
    },
    {
      "inputs": [
        {
          "internalType": "address",
          "name": "owner",
          "type": "address"
        },
        {
          "internalType": "uint256",
          "name": "index",
          "type": "uint256"
        }
      ],
      "name": "tokenOfOwnerByIndex",
      "outputs": [
        {
          "internalType": "uint256",
          "name": "",
          "type": "uint256"
        }
      ],
      "stateMutability": "view",
      "type": "function"
    },
    {
      "inputs": [
        {
          "internalType": "uint256",
          "name": "tokenId",
          "type": "uint256"
        }
      ],
      "name": "tokenURI",
      "outputs": [
        {
          "internalType": "string",
          "name": "",
          "type": "string"
        }
      ],
      "stateMutability": "view",
      "type": "function"
    },
    {
      "inputs": [],
      "name": "totalSupply",
      "outputs": [
        {
          "internalType": "uint256",
          "name": "",
          "type": "uint256"
        }
      ],
      "stateMutability": "view",
      "type": "function"
    },
    {
      "inputs": [
        {
          "internalType": "address",
          "name": "from",
          "type": "address"
        },
        {
          "internalType": "address",
          "name": "to",
          "type": "address"
        },
        {
          "internalType": "uint256",
          "name": "tokenId",
          "type": "uint256"
        }
      ],
      "name": "transferFrom",
      "outputs": [],
      "stateMutability": "nonpayable",
      "type": "function"
    },
    {
      "inputs": [
        {
          "internalType": "address",
          "name": "_sender",
          "type": "address"
        }
      ],
      "name": "whiteListAddress",
      "outputs": [],
      "stateMutability": "nonpayable",
      "type": "function"
    }
  ],
  "bytecode": "0x608060405273cedc601d1e9696dd34c0f132812198e250109183601360006101000a81548173ffffffffffffffffffffffffffffffffffffffff021916908373ffffffffffffffffffffffffffffffffffffffff160217905550730f06707e5e4f7329d2497121d536479c3c4f1129601460006101000a81548173ffffffffffffffffffffffffffffffffffffffff021916908373ffffffffffffffffffffffffffffffffffffffff160217905550348015620000bb57600080fd5b50604051620044d3380380620044d383398181016040526020811015620000e157600080fd5b81019080805190602001909291905050506040518060400160405280600981526020017f494d582050554e4b5300000000000000000000000000000000000000000000008152506040518060400160405280600281526020017f4950000000000000000000000000000000000000000000000000000000000000815250620001766301ffc9a760e01b6200028260201b60201c565b81600690805190602001906200018e9291906200038b565b508060079080519060200190620001a79291906200038b565b50620001c06380ac58cd60e01b6200028260201b60201c565b620001d8635b5e139f60e01b6200028260201b60201c565b620001f063780e9d6360e01b6200028260201b60201c565b505080600a60006101000a81548173ffffffffffffffffffffffffffffffffffffffff021916908373ffffffffffffffffffffffffffffffffffffffff16021790555042600b8190555033601260006101000a81548173ffffffffffffffffffffffffffffffffffffffff021916908373ffffffffffffffffffffffffffffffffffffffff1602179055505062000441565b63ffffffff60e01b817bffffffffffffffffffffffffffffffffffffffffffffffffffffffff191614156200031f576040517f08c379a000000000000000000000000000000000000000000000000000000000815260040180806020018281038252601c8152602001807f4552433136353a20696e76616c696420696e746572666163652069640000000081525060200191505060405180910390fd5b6001600080837bffffffffffffffffffffffffffffffffffffffffffffffffffffffff19167bffffffffffffffffffffffffffffffffffffffffffffffffffffffff1916815260200190815260200160002060006101000a81548160ff02191690831515021790555050565b828054600181600116156101000203166002900490600052602060002090601f016020900481019282620003c357600085556200040f565b82601f10620003de57805160ff19168380011785556200040f565b828001600101855582156200040f579182015b828111156200040e578251825591602001919060010190620003f1565b5b5090506200041e919062000422565b5090565b5b808211156200043d57600081600090555060010162000423565b5090565b61408280620004516000396000f3fe6080604052600436106101dc5760003560e01c80636c0360eb11610102578063a22cb46511610095578063cf52a7b211610064578063cf52a7b214610d70578063d79bd49914610dc1578063e985e9c514610dcb578063f2cee92b14610e52576101dd565b8063a22cb46514610ae8578063b88d4fde14610b45578063bc41934114610c57578063c87b56dd14610cbc576101dd565b80637ca3d575116100d15780637ca3d575146109c557806395d89b41146109f05780639d044ed314610a805780639e7429bb14610aad576101dd565b80636c0360eb1461083e5780636f9170f6146108ce57806370a082311461093557806378e979251461099a576101dd565b806318160ddd1161017a5780632f745c59116101495780632f745c59146106a057806342842e0e1461070f5780634f6ccce71461078a5780636352211e146107d9576101dd565b806318160ddd146104e557806319ee6e3f1461051057806323b872dd146105c057806323d428471461063b576101dd565b8063081812fc116101b6578063081812fc14610312578063095ea7b3146103775780630f08025f146103d2578063162094c414610413576101dd565b806301ffc9a7146101e757806306fdde031461025757806307a334e2146102e7576101dd565b5b6101e5610f06565b005b3480156101f357600080fd5b5061023f6004803603602081101561020a57600080fd5b8101908080357bffffffffffffffffffffffffffffffffffffffffffffffffffffffff19169060200190929190505050611047565b60405180821515815260200191505060405180910390f35b34801561026357600080fd5b5061026c6110ae565b6040518080602001828103825283818151815260200191508051906020019080838360005b838110156102ac578082015181840152602081019050610291565b50505050905090810190601f1680156102d95780820380516001836020036101000a031916815260200191505b509250505060405180910390f35b3480156102f357600080fd5b506102fc611150565b6040518082815260200191505060405180910390f35b34801561031e57600080fd5b5061034b6004803603602081101561033557600080fd5b8101908080359060200190929190505050611156565b604051808273ffffffffffffffffffffffffffffffffffffffff16815260200191505060405180910390f35b34801561038357600080fd5b506103d06004803603604081101561039a57600080fd5b81019080803573ffffffffffffffffffffffffffffffffffffffff169060200190929190803590602001909291905050506111f1565b005b3480156103de57600080fd5b506103e7611335565b604051808273ffffffffffffffffffffffffffffffffffffffff16815260200191505060405180910390f35b34801561041f57600080fd5b506104e36004803603604081101561043657600080fd5b81019080803590602001909291908035906020019064010000000081111561045d57600080fd5b82018360208201111561046f57600080fd5b8035906020019184600183028401116401000000008311171561049157600080fd5b91908080601f016020809104026020016040519081016040528093929190818152602001838380828437600081840152601f19601f82011690508083019250505050505050919291929050505061135b565b005b3480156104f157600080fd5b506104fa611447565b6040518082815260200191505060405180910390f35b34801561051c57600080fd5b506105be6004803603606081101561053357600080fd5b81019080803573ffffffffffffffffffffffffffffffffffffffff169060200190929190803590602001909291908035906020019064010000000081111561057a57600080fd5b82018360208201111561058c57600080fd5b803590602001918460018302840111640100000000831117156105ae57600080fd5b9091929391929390505050611458565b005b3480156105cc57600080fd5b50610639600480360360608110156105e357600080fd5b81019080803573ffffffffffffffffffffffffffffffffffffffff169060200190929190803573ffffffffffffffffffffffffffffffffffffffff169060200190929190803590602001909291905050506115dc565b005b34801561064757600080fd5b5061068a6004803603602081101561065e57600080fd5b81019080803573ffffffffffffffffffffffffffffffffffffffff169060200190929190505050611652565b6040518082815260200191505060405180910390f35b3480156106ac57600080fd5b506106f9600480360360408110156106c357600080fd5b81019080803573ffffffffffffffffffffffffffffffffffffffff1690602001909291908035906020019092919050505061166a565b6040518082815260200191505060405180910390f35b34801561071b57600080fd5b506107886004803603606081101561073257600080fd5b81019080803573ffffffffffffffffffffffffffffffffffffffff169060200190929190803573ffffffffffffffffffffffffffffffffffffffff169060200190929190803590602001909291905050506116c5565b005b34801561079657600080fd5b506107c3600480360360208110156107ad57600080fd5b81019080803590602001909291905050506116e5565b6040518082815260200191505060405180910390f35b3480156107e557600080fd5b50610812600480360360208110156107fc57600080fd5b8101908080359060200190929190505050611708565b604051808273ffffffffffffffffffffffffffffffffffffffff16815260200191505060405180910390f35b34801561084a57600080fd5b5061085361173f565b6040518080602001828103825283818151815260200191508051906020019080838360005b83811015610893578082015181840152602081019050610878565b50505050905090810190601f1680156108c05780820380516001836020036101000a031916815260200191505b509250505060405180910390f35b3480156108da57600080fd5b5061091d600480360360208110156108f157600080fd5b81019080803573ffffffffffffffffffffffffffffffffffffffff1690602001909291905050506117e1565b60405180821515815260200191505060405180910390f35b34801561094157600080fd5b506109846004803603602081101561095857600080fd5b81019080803573ffffffffffffffffffffffffffffffffffffffff169060200190929190505050611801565b6040518082815260200191505060405180910390f35b3480156109a657600080fd5b506109af6118d6565b6040518082815260200191505060405180910390f35b3480156109d157600080fd5b506109da6118dc565b6040518082815260200191505060405180910390f35b3480156109fc57600080fd5b50610a056118e2565b6040518080602001828103825283818151815260200191508051906020019080838360005b83811015610a45578082015181840152602081019050610a2a565b50505050905090810190601f168015610a725780820380516001836020036101000a031916815260200191505b509250505060405180910390f35b348015610a8c57600080fd5b50610a95611984565b60405180821515815260200191505060405180910390f35b348015610ab957600080fd5b50610ae660048036036020811015610ad057600080fd5b81019080803590602001909291905050506119a9565b005b348015610af457600080fd5b50610b4360048036036040811015610b0b57600080fd5b81019080803573ffffffffffffffffffffffffffffffffffffffff169060200190929190803515159060200190929190505050611a0d565b005b348015610b5157600080fd5b50610c5560048036036080811015610b6857600080fd5b81019080803573ffffffffffffffffffffffffffffffffffffffff169060200190929190803573ffffffffffffffffffffffffffffffffffffffff1690602001909291908035906020019092919080359060200190640100000000811115610bcf57600080fd5b820183602082011115610be157600080fd5b80359060200191846001830284011164010000000083111715610c0357600080fd5b91908080601f016020809104026020016040519081016040528093929190818152602001838380828437600081840152601f19601f820116905080830192505050505050509192919290505050611bc3565b005b348015610c6357600080fd5b50610ca660048036036020811015610c7a57600080fd5b81019080803573ffffffffffffffffffffffffffffffffffffffff169060200190929190505050611c3b565b6040518082815260200191505060405180910390f35b348015610cc857600080fd5b50610cf560048036036020811015610cdf57600080fd5b8101908080359060200190929190505050611c53565b6040518080602001828103825283818151815260200191508051906020019080838360005b83811015610d35578082015181840152602081019050610d1a565b50505050905090810190601f168015610d625780820380516001836020036101000a031916815260200191505b509250505060405180910390f35b348015610d7c57600080fd5b50610dbf60048036036020811015610d9357600080fd5b81019080803573ffffffffffffffffffffffffffffffffffffffff169060200190929190505050611f24565b005b610dc9610f06565b005b348015610dd757600080fd5b50610e3a60048036036040811015610dee57600080fd5b81019080803573ffffffffffffffffffffffffffffffffffffffff169060200190929190803573ffffffffffffffffffffffffffffffffffffffff169060200190929190505050611fd9565b60405180821515815260200191505060405180910390f35b348015610e5e57600080fd5b50610e8b60048036036020811015610e7557600080fd5b810190808035906020019092919050505061206d565b6040518080602001828103825283818151815260200191508051906020019080838360005b83811015610ecb578082015181840152602081019050610eb0565b50505050905090810190601f168015610ef85780820380516001836020036101000a031916815260200191505b509250505060405180910390f35b601260009054906101000a900473ffffffffffffffffffffffffffffffffffffffff1673ffffffffffffffffffffffffffffffffffffffff163373ffffffffffffffffffffffffffffffffffffffff1614610f6057600080fd5b601360009054906101000a900473ffffffffffffffffffffffffffffffffffffffff1673ffffffffffffffffffffffffffffffffffffffff166108fc610fb060024761211d90919063ffffffff16565b9081150290604051600060405180830381858888f19350505050158015610fdb573d6000803e3d6000fd5b50601460009054906101000a900473ffffffffffffffffffffffffffffffffffffffff1673ffffffffffffffffffffffffffffffffffffffff166108fc479081150290604051600060405180830381858888f19350505050158015611044573d6000803e3d6000fd5b50565b6000806000837bffffffffffffffffffffffffffffffffffffffffffffffffffffffff19167bffffffffffffffffffffffffffffffffffffffffffffffffffffffff1916815260200190815260200160002060009054906101000a900460ff169050919050565b606060068054600181600116156101000203166002900480601f0160208091040260200160405190810160405280929190818152602001828054600181600116156101000203166002900480156111465780601f1061111b57610100808354040283529160200191611146565b820191906000526020600020905b81548152906001019060200180831161112957829003601f168201915b5050505050905090565b600d5481565b6000611161826121a6565b6111b6576040517f08c379a000000000000000000000000000000000000000000000000000000000815260040180806020018281038252602c815260200180613f4b602c913960400191505060405180910390fd5b6004600083815260200190815260200160002060009054906101000a900473ffffffffffffffffffffffffffffffffffffffff169050919050565b60006111fc82611708565b90508073ffffffffffffffffffffffffffffffffffffffff168373ffffffffffffffffffffffffffffffffffffffff161415611283576040517f08c379a0000000000000000000000000000000000000000000000000000000008152600401808060200182810382526021815260200180613ffb6021913960400191505060405180910390fd5b8073ffffffffffffffffffffffffffffffffffffffff166112a26121c3565b73ffffffffffffffffffffffffffffffffffffffff1614806112d157506112d0816112cb6121c3565b611fd9565b5b611326576040517f08c379a0000000000000000000000000000000000000000000000000000000008152600401808060200182810382526038815260200180613e9e6038913960400191505060405180910390fd5b61133083836121cb565b505050565b600a60009054906101000a900473ffffffffffffffffffffffffffffffffffffffff1681565b62015180600c5402600b540142101561137357600080fd5b6010600061137f6121c3565b73ffffffffffffffffffffffffffffffffffffffff1673ffffffffffffffffffffffffffffffffffffffff16815260200190815260200160002060009054906101000a900460ff16611439576040517f08c379a00000000000000000000000000000000000000000000000000000000081526004018080602001828103825260108152602001807f4e6f74207768697465206c69737465640000000000000000000000000000000081525060200191505060405180910390fd5b6114438282612284565b5050565b6000611453600261230e565b905090565b600183146114ce576040517f08c379a000000000000000000000000000000000000000000000000000000000815260040180806020018281038252600f8152602001807f4e6f74206d6f7265207468616e2031000000000000000000000000000000000081525060200191505060405180910390fd5b6000806114db8484612323565b9150915080601160008481526020019081526020016000209080519060200190611506929190613c17565b50611511868361253e565b507f5632acf966a0050d2c24d7f5ccdd20cc1bcf726cfd6c945e805aae0b0a332ec3868383604051808473ffffffffffffffffffffffffffffffffffffffff16815260200183815260200180602001828103825283818151815260200191508051906020019080838360005b8381101561159857808201518184015260208101905061157d565b50505050905090810190601f1680156115c55780820380516001836020036101000a031916815260200191505b5094505050505060405180910390a1505050505050565b6115ed6115e76121c3565b826128f0565b611642576040517f08c379a000000000000000000000000000000000000000000000000000000000815260040180806020018281038252603181526020018061401c6031913960400191505060405180910390fd5b61164d8383836129e4565b505050565b600e6020528060005260406000206000915090505481565b60006116bd82600160008673ffffffffffffffffffffffffffffffffffffffff1673ffffffffffffffffffffffffffffffffffffffff168152602001908152602001600020612c2790919063ffffffff16565b905092915050565b6116e083838360405180602001604052806000815250611bc3565b505050565b6000806116fc836002612c4190919063ffffffff16565b50905080915050919050565b600061173882604051806060016040528060298152602001613f00602991396002612c6d9092919063ffffffff16565b9050919050565b606060098054600181600116156101000203166002900480601f0160208091040260200160405190810160405280929190818152602001828054600181600116156101000203166002900480156117d75780601f106117ac576101008083540402835291602001916117d7565b820191906000526020600020905b8154815290600101906020018083116117ba57829003601f168201915b5050505050905090565b60106020528060005260406000206000915054906101000a900460ff1681565b60008073ffffffffffffffffffffffffffffffffffffffff168273ffffffffffffffffffffffffffffffffffffffff161415611888576040517f08c379a000000000000000000000000000000000000000000000000000000000815260040180806020018281038252602a815260200180613ed6602a913960400191505060405180910390fd5b6118cf600160008473ffffffffffffffffffffffffffffffffffffffff1673ffffffffffffffffffffffffffffffffffffffff168152602001908152602001600020612c8c565b9050919050565b600b5481565b600c5481565b606060078054600181600116156101000203166002900480601f01602080910402602001604051908101604052809291908181526020018280546001816001161561010002031660029004801561197a5780601f1061194f5761010080835404028352916020019161197a565b820191906000526020600020905b81548152906001019060200180831161195d57829003601f168201915b5050505050905090565b600062015180600c5402600b540142116119a157600190506119a6565b600090505b90565b601260009054906101000a900473ffffffffffffffffffffffffffffffffffffffff1673ffffffffffffffffffffffffffffffffffffffff163373ffffffffffffffffffffffffffffffffffffffff1614611a0357600080fd5b80600c8190555050565b611a156121c3565b73ffffffffffffffffffffffffffffffffffffffff168273ffffffffffffffffffffffffffffffffffffffff161415611ab6576040517f08c379a00000000000000000000000000000000000000000000000000000000081526004018080602001828103825260198152602001807f4552433732313a20617070726f766520746f2063616c6c65720000000000000081525060200191505060405180910390fd5b8060056000611ac36121c3565b73ffffffffffffffffffffffffffffffffffffffff1673ffffffffffffffffffffffffffffffffffffffff16815260200190815260200160002060008473ffffffffffffffffffffffffffffffffffffffff1673ffffffffffffffffffffffffffffffffffffffff16815260200190815260200160002060006101000a81548160ff0219169083151502179055508173ffffffffffffffffffffffffffffffffffffffff16611b706121c3565b73ffffffffffffffffffffffffffffffffffffffff167f17307eab39ab6107e8899845ad3d59bd9653f200f220920489ca2b5937696c318360405180821515815260200191505060405180910390a35050565b611bd4611bce6121c3565b836128f0565b611c29576040517f08c379a000000000000000000000000000000000000000000000000000000000815260040180806020018281038252603181526020018061401c6031913960400191505060405180910390fd5b611c3584848484612ca1565b50505050565b600f6020528060005260406000206000915090505481565b6060611c5e826121a6565b611cb3576040517f08c379a000000000000000000000000000000000000000000000000000000000815260040180806020018281038252602f815260200180613fcc602f913960400191505060405180910390fd5b6000600860008481526020019081526020016000208054600181600116156101000203166002900480601f016020809104026020016040519081016040528092919081815260200182805460018160011615610100020316600290048015611d5c5780601f10611d3157610100808354040283529160200191611d5c565b820191906000526020600020905b815481529060010190602001808311611d3f57829003601f168201915b505050505090506000611d6d61173f565b9050600081511415611d83578192505050611f1f565b600082511115611e545780826040516020018083805190602001908083835b60208310611dc55780518252602082019150602081019050602083039250611da2565b6001836020036101000a03801982511681845116808217855250505050505090500182805190602001908083835b60208310611e165780518252602082019150602081019050602083039250611df3565b6001836020036101000a0380198251168184511680821785525050505050509050019250505060405160208183030381529060405292505050611f1f565b80611e5e85612d13565b6040516020018083805190602001908083835b60208310611e945780518252602082019150602081019050602083039250611e71565b6001836020036101000a03801982511681845116808217855250505050505090500182805190602001908083835b60208310611ee55780518252602082019150602081019050602083039250611ec2565b6001836020036101000a03801982511681845116808217855250505050505090500192505050604051602081830303815290604052925050505b919050565b601260009054906101000a900473ffffffffffffffffffffffffffffffffffffffff1673ffffffffffffffffffffffffffffffffffffffff163373ffffffffffffffffffffffffffffffffffffffff1614611f7e57600080fd5b6001601060008373ffffffffffffffffffffffffffffffffffffffff1673ffffffffffffffffffffffffffffffffffffffff16815260200190815260200160002060006101000a81548160ff02191690831515021790555050565b6000600560008473ffffffffffffffffffffffffffffffffffffffff1673ffffffffffffffffffffffffffffffffffffffff16815260200190815260200160002060008373ffffffffffffffffffffffffffffffffffffffff1673ffffffffffffffffffffffffffffffffffffffff16815260200190815260200160002060009054906101000a900460ff16905092915050565b60116020528060005260406000206000915090508054600181600116156101000203166002900480601f0160208091040260200160405190810160405280929190818152602001828054600181600116156101000203166002900480156121155780601f106120ea57610100808354040283529160200191612115565b820191906000526020600020905b8154815290600101906020018083116120f857829003601f168201915b505050505081565b6000808211612194576040517f08c379a000000000000000000000000000000000000000000000000000000000815260040180806020018281038252601a8152602001807f536166654d6174683a206469766973696f6e206279207a65726f00000000000081525060200191505060405180910390fd5b81838161219d57fe5b04905092915050565b60006121bc826002612e5a90919063ffffffff16565b9050919050565b600033905090565b816004600083815260200190815260200160002060006101000a81548173ffffffffffffffffffffffffffffffffffffffff021916908373ffffffffffffffffffffffffffffffffffffffff160217905550808273ffffffffffffffffffffffffffffffffffffffff1661223e83611708565b73ffffffffffffffffffffffffffffffffffffffff167f8c5be1e5ebec7d5bd14f71427d1e84f3dd0314c0f7b2291e5b200ac8c7c3b92560405160405180910390a45050565b61228d826121a6565b6122e2576040517f08c379a000000000000000000000000000000000000000000000000000000000815260040180806020018281038252602c815260200180613f77602c913960400191505060405180910390fd5b80600860008481526020019081526020016000209080519060200190612309929190613ca5565b505050565b600061231c82600001612e74565b9050919050565b6000606060006123ae85858080601f016020809104026020016040519081016040528093929190818152602001838380828437600081840152601f19601f820116905080830192505050505050506040518060400160405280600181526020017f3a000000000000000000000000000000000000000000000000000000000000008152506000612e85565b90506000811215612427576040517f08c379a00000000000000000000000000000000000000000000000000000000081526004018080602001828103825260148152602001807f536570617261746f72206d75737420657869737400000000000000000000000081525060200191505060405180910390fd5b600061248a8686600190600186039261244293929190613d50565b8080601f016020809104026020016040519081016040528093929190818152602001838380828437600081840152601f19601f82011690508083019250505050505050612f62565b90506000600383888890500303905060008114156124bf57816040518060200160405280600081525094509450505050612537565b3660008888600287019060018c8c905003926124dd93929190613d50565b9150915083828281818080601f016020809104026020016040519081016040528093929190818152602001838380828437600081840152601f19601f82011690508083019250505050505050905090509650965050505050505b9250929050565b6000612548611984565b1561277d57601060008473ffffffffffffffffffffffffffffffffffffffff1673ffffffffffffffffffffffffffffffffffffffff16815260200190815260200160002060009054906101000a900460ff1661260c576040517f08c379a00000000000000000000000000000000000000000000000000000000081526004018080602001828103825260178152602001807f41646472657373206e6f742077686974656c697374656400000000000000000081525060200191505060405180910390fd5b6001600e60008573ffffffffffffffffffffffffffffffffffffffff1673ffffffffffffffffffffffffffffffffffffffff1681526020019081526020016000205411156126c2576040517f08c379a00000000000000000000000000000000000000000000000000000000081526004018080602001828103825260198152602001807f5075726368617365204c696d69742046756c6c66696c6c65640000000000000081525060200191505060405180910390fd5b6001600e60008573ffffffffffffffffffffffffffffffffffffffff1673ffffffffffffffffffffffffffffffffffffffff1681526020019081526020016000205401600e60008573ffffffffffffffffffffffffffffffffffffffff1673ffffffffffffffffffffffffffffffffffffffff168152602001908152602001600020819055506127528383612fd1565b61277482604051806080016040528060508152602001613dfc60509139612284565b600190506128ea565b6003600f60008573ffffffffffffffffffffffffffffffffffffffff1673ffffffffffffffffffffffffffffffffffffffff168152602001908152602001600020541115612833576040517f08c379a000000000000000000000000000000000000000000000000000000000815260040180806020018281038252600f8152602001807f4c696d69742046756c66696c6c6564000000000000000000000000000000000081525060200191505060405180910390fd5b6001600f60008573ffffffffffffffffffffffffffffffffffffffff1673ffffffffffffffffffffffffffffffffffffffff1681526020019081526020016000205401600f60008573ffffffffffffffffffffffffffffffffffffffff1673ffffffffffffffffffffffffffffffffffffffff168152602001908152602001600020819055506128c38383612fd1565b6128e582604051806080016040528060508152602001613dfc60509139612284565b600190505b92915050565b60006128fb826121a6565b612950576040517f08c379a000000000000000000000000000000000000000000000000000000000815260040180806020018281038252602c815260200180613e72602c913960400191505060405180910390fd5b600061295b83611708565b90508073ffffffffffffffffffffffffffffffffffffffff168473ffffffffffffffffffffffffffffffffffffffff1614806129ca57508373ffffffffffffffffffffffffffffffffffffffff166129b284611156565b73ffffffffffffffffffffffffffffffffffffffff16145b806129db57506129da8185611fd9565b5b91505092915050565b8273ffffffffffffffffffffffffffffffffffffffff16612a0482611708565b73ffffffffffffffffffffffffffffffffffffffff1614612a70576040517f08c379a0000000000000000000000000000000000000000000000000000000008152600401808060200182810382526029815260200180613fa36029913960400191505060405180910390fd5b600073ffffffffffffffffffffffffffffffffffffffff168273ffffffffffffffffffffffffffffffffffffffff161415612af6576040517f08c379a0000000000000000000000000000000000000000000000000000000008152600401808060200182810382526024815260200180613dd86024913960400191505060405180910390fd5b612b01838383612fef565b612b0c6000826121cb565b612b5d81600160008673ffffffffffffffffffffffffffffffffffffffff1673ffffffffffffffffffffffffffffffffffffffff168152602001908152602001600020612ff490919063ffffffff16565b50612baf81600160008573ffffffffffffffffffffffffffffffffffffffff1673ffffffffffffffffffffffffffffffffffffffff16815260200190815260200160002061300e90919063ffffffff16565b50612bc6818360026130289092919063ffffffff16565b50808273ffffffffffffffffffffffffffffffffffffffff168473ffffffffffffffffffffffffffffffffffffffff167fddf252ad1be2c89b69c2b068fc378daa952ba7f163c4a11628f55a4df523b3ef60405160405180910390a4505050565b6000612c36836000018361305d565b60001c905092915050565b600080600080612c5486600001866130e0565b915091508160001c8160001c9350935050509250929050565b6000612c80846000018460001b84613179565b60001c90509392505050565b6000612c9a8260000161326f565b9050919050565b612cac8484846129e4565b612cb884848484613280565b612d0d576040517f08c379a0000000000000000000000000000000000000000000000000000000008152600401808060200182810382526032815260200180613da66032913960400191505060405180910390fd5b50505050565b60606000821415612d5b576040518060400160405280600181526020017f30000000000000000000000000000000000000000000000000000000000000008152509050612e55565b600082905060005b60008214612d85578080600101915050600a8281612d7d57fe5b049150612d63565b60008167ffffffffffffffff81118015612d9e57600080fd5b506040519080825280601f01601f191660200182016040528015612dd15781602001600182028036833780820191505090505b50905060006001830390508593505b60008414612e4d57600a8481612df257fe5b0660300160f81b82828060019003935081518110612e0c57fe5b60200101907effffffffffffffffffffffffffffffffffffffffffffffffffffffffffffff1916908160001a905350600a8481612e4557fe5b049350612de0565b819450505050505b919050565b6000612e6c836000018360001b613499565b905092915050565b600081600001805490509050919050565b6000808390506001815114612e9657fe5b60008390505b8551811015612f355781600081518110612eb257fe5b602001015160f81c60f81b7effffffffffffffffffffffffffffffffffffffffffffffffffffffffffffff1916868281518110612eeb57fe5b602001015160f81c60f81b7effffffffffffffffffffffffffffffffffffffffffffffffffffffffffffff19161415612f28578092505050612f5b565b8080600101915050612e9c565b507fffffffffffffffffffffffffffffffffffffffffffffffffffffffffffffffff9150505b9392505050565b6000806000905060005b8351811015612fc7576000848281518110612f8357fe5b602001015160f81c60f81b60f81c60ff16905060308110158015612fa8575060398111155b15612fb95760308103600a84020192505b508080600101915050612f6c565b5080915050919050565b612feb8282604051806020016040528060008152506134bc565b5050565b505050565b6000613006836000018360001b61352d565b905092915050565b6000613020836000018360001b613615565b905092915050565b6000613054846000018460001b8473ffffffffffffffffffffffffffffffffffffffff1660001b613685565b90509392505050565b6000818360000180549050116130be576040517f08c379a0000000000000000000000000000000000000000000000000000000008152600401808060200182810382526022815260200180613d846022913960400191505060405180910390fd5b8260000182815481106130cd57fe5b9060005260206000200154905092915050565b60008082846000018054905011613142576040517f08c379a0000000000000000000000000000000000000000000000000000000008152600401808060200182810382526022815260200180613f296022913960400191505060405180910390fd5b600084600001848154811061315357fe5b906000526020600020906002020190508060000154816001015492509250509250929050565b60008084600101600085815260200190815260200160002054905060008114158390613240576040517f08c379a00000000000000000000000000000000000000000000000000000000081526004018080602001828103825283818151815260200191508051906020019080838360005b838110156132055780820151818401526020810190506131ea565b50505050905090810190601f1680156132325780820380516001836020036101000a031916815260200191505b509250505060405180910390fd5b5084600001600182038154811061325357fe5b9060005260206000209060020201600101549150509392505050565b600081600001805490509050919050565b60006132a18473ffffffffffffffffffffffffffffffffffffffff16613761565b6132ae5760019050613491565b600061341863150b7a0260e01b6132c36121c3565b888787604051602401808573ffffffffffffffffffffffffffffffffffffffff1681526020018473ffffffffffffffffffffffffffffffffffffffff16815260200183815260200180602001828103825283818151815260200191508051906020019080838360005b8381101561334757808201518184015260208101905061332c565b50505050905090810190601f1680156133745780820380516001836020036101000a031916815260200191505b5095505050505050604051602081830303815290604052907bffffffffffffffffffffffffffffffffffffffffffffffffffffffff19166020820180517bffffffffffffffffffffffffffffffffffffffffffffffffffffffff8381831617835250505050604051806060016040528060328152602001613da6603291398773ffffffffffffffffffffffffffffffffffffffff166137749092919063ffffffff16565b9050600081806020019051602081101561343157600080fd5b8101908080519060200190929190505050905063150b7a0260e01b7bffffffffffffffffffffffffffffffffffffffffffffffffffffffff1916817bffffffffffffffffffffffffffffffffffffffffffffffffffffffff191614925050505b949350505050565b600080836001016000848152602001908152602001600020541415905092915050565b6134c6838361378c565b6134d36000848484613280565b613528576040517f08c379a0000000000000000000000000000000000000000000000000000000008152600401808060200182810382526032815260200180613da66032913960400191505060405180910390fd5b505050565b60008083600101600084815260200190815260200160002054905060008114613609576000600182039050600060018660000180549050039050600086600001828154811061357857fe5b906000526020600020015490508087600001848154811061359557fe5b90600052602060002001819055506001830187600101600083815260200190815260200160002081905550866000018054806135cd57fe5b6001900381819060005260206000200160009055905586600101600087815260200190815260200160002060009055600194505050505061360f565b60009150505b92915050565b60006136218383613980565b61367a57826000018290806001815401808255809150506001900390600052602060002001600090919091909150558260000180549050836001016000848152602001908152602001600020819055506001905061367f565b600090505b92915050565b600080846001016000858152602001908152602001600020549050600081141561372c5784600001604051806040016040528086815260200185815250908060018154018082558091505060019003906000526020600020906002020160009091909190915060008201518160000155602082015181600101555050846000018054905085600101600086815260200190815260200160002081905550600191505061375a565b8285600001600183038154811061373f57fe5b90600052602060002090600202016001018190555060009150505b9392505050565b600080823b905060008111915050919050565b606061378384846000856139a3565b90509392505050565b600073ffffffffffffffffffffffffffffffffffffffff168273ffffffffffffffffffffffffffffffffffffffff16141561382f576040517f08c379a00000000000000000000000000000000000000000000000000000000081526004018080602001828103825260208152602001807f4552433732313a206d696e7420746f20746865207a65726f206164647265737381525060200191505060405180910390fd5b613838816121a6565b156138ab576040517f08c379a000000000000000000000000000000000000000000000000000000000815260040180806020018281038252601c8152602001807f4552433732313a20746f6b656e20616c7265616479206d696e7465640000000081525060200191505060405180910390fd5b6138b760008383612fef565b61390881600160008573ffffffffffffffffffffffffffffffffffffffff1673ffffffffffffffffffffffffffffffffffffffff16815260200190815260200160002061300e90919063ffffffff16565b5061391f818360026130289092919063ffffffff16565b50808273ffffffffffffffffffffffffffffffffffffffff16600073ffffffffffffffffffffffffffffffffffffffff167fddf252ad1be2c89b69c2b068fc378daa952ba7f163c4a11628f55a4df523b3ef60405160405180910390a45050565b600080836001016000848152602001908152602001600020541415905092915050565b6060824710156139fe576040517f08c379a0000000000000000000000000000000000000000000000000000000008152600401808060200182810382526026815260200180613e4c6026913960400191505060405180910390fd5b613a0785613761565b613a79576040517f08c379a000000000000000000000000000000000000000000000000000000000815260040180806020018281038252601d8152602001807f416464726573733a2063616c6c20746f206e6f6e2d636f6e747261637400000081525060200191505060405180910390fd5b6000808673ffffffffffffffffffffffffffffffffffffffff1685876040518082805190602001908083835b60208310613ac85780518252602082019150602081019050602083039250613aa5565b6001836020036101000a03801982511681845116808217855250505050505090500191505060006040518083038185875af1925050503d8060008114613b2a576040519150601f19603f3d011682016040523d82523d6000602084013e613b2f565b606091505b5091509150613b3f828286613b4b565b92505050949350505050565b60608315613b5b57829050613c10565b600083511115613b6e5782518084602001fd5b816040517f08c379a00000000000000000000000000000000000000000000000000000000081526004018080602001828103825283818151815260200191508051906020019080838360005b83811015613bd5578082015181840152602081019050613bba565b50505050905090810190601f168015613c025780820380516001836020036101000a031916815260200191505b509250505060405180910390fd5b9392505050565b828054600181600116156101000203166002900490600052602060002090601f016020900481019282613c4d5760008555613c94565b82601f10613c6657805160ff1916838001178555613c94565b82800160010185558215613c94579182015b82811115613c93578251825591602001919060010190613c78565b5b509050613ca19190613d33565b5090565b828054600181600116156101000203166002900490600052602060002090601f016020900481019282613cdb5760008555613d22565b82601f10613cf457805160ff1916838001178555613d22565b82800160010185558215613d22579182015b82811115613d21578251825591602001919060010190613d06565b5b509050613d2f9190613d33565b5090565b5b80821115613d4c576000816000905550600101613d34565b5090565b60008085851115613d6057600080fd5b83861115613d6d57600080fd5b600185028301915084860390509450949250505056fe456e756d657261626c655365743a20696e646578206f7574206f6620626f756e64734552433732313a207472616e7366657220746f206e6f6e20455243373231526563656976657220696d706c656d656e7465724552433732313a207472616e7366657220746f20746865207a65726f206164647265737368747470733a2f2f676174657761792e70696e6174612e636c6f75642f697066732f516d51354b684d466b416741316d7164736272586a515475395544475638726e70646d69504e4269575046724b66416464726573733a20696e73756666696369656e742062616c616e636520666f722063616c6c4552433732313a206f70657261746f7220717565727920666f72206e6f6e6578697374656e7420746f6b656e4552433732313a20617070726f76652063616c6c6572206973206e6f74206f776e6572206e6f7220617070726f76656420666f7220616c6c4552433732313a2062616c616e636520717565727920666f7220746865207a65726f20616464726573734552433732313a206f776e657220717565727920666f72206e6f6e6578697374656e7420746f6b656e456e756d657261626c654d61703a20696e646578206f7574206f6620626f756e64734552433732313a20617070726f76656420717565727920666f72206e6f6e6578697374656e7420746f6b656e4552433732314d657461646174613a2055524920736574206f66206e6f6e6578697374656e7420746f6b656e4552433732313a207472616e73666572206f6620746f6b656e2074686174206973206e6f74206f776e4552433732314d657461646174613a2055524920717565727920666f72206e6f6e6578697374656e7420746f6b656e4552433732313a20617070726f76616c20746f2063757272656e74206f776e65724552433732313a207472616e736665722063616c6c6572206973206e6f74206f776e6572206e6f7220617070726f766564a2646970667358221220578b071e815ca926514559d5947882bef45aae4272787199a3a89ec9be63bcf364736f6c63430007060033",
  "linkReferences": {},
  "deployedLinkReferences": {}
}